:020000040800F2
:10000000480F002001010008350C0008310C0008E1
:10001000330C0008F7080008611500080000000014
:10002000000000000000000000000000D30F0008E6
:10003000F908000800000000F50D0008D50F0008C1
:100040001B0100081B0100081B0100081B01000820
:100050001B0100081B0100081B0100081B01000810
:100060001B010008FD0800081B0100081B01000817
:100070001B0100081B0100081B0100081B010008F0
:100080001B0100081B0100081B0100081B010008E0
:100090001B0100081B0100081B0100081B010008D0
:1000A0001B0100081B0100081B0100081B010008C0
:1000B0006D1100086F1100081B0100081B010008EA
:1000C0001B0100081B0100081B0100081B010008A0
:1000D0001B01000865120008111300081B0100082D
:1000E0001B0100081B0100081B010008DFF80CD0F1
:1000F00000F0C4FB0048004769200008480F0020BA
:100100000648804706480047FEE7FEE7FEE7FEE7B1
:10011000FEE7FEE7FEE7FEE7FEE7FEE77D100008EC
:10012000ED0000082DE9F05F0546002092469B4651
:1001300088460646814640241BE0284641464746FD
:10014000224600F06EFA53465A46C01A914110D327
:1001500011461846224600F055FA2D1A67EB0108A1
:100160004F4622460120002100F04CFA17EB00090F
:100170004E41201EA4F10104DFDC484631462A46E8
:100180004346BDE8F09F00000048704780430008E8
:1001900040EA01039B0703D009E008C9121F08C009
:1001A000042AFAD203E011F8013B00F8013B521E89
:1001B000F9D27047D2B201E000F8012B491EFBD200
:1001C00070470022F6E710B513460A460446194662
:1001D000FFF7F0FF204610BD421C10F8011B00295C
:1001E000FBD1801A704730B504460020034600E07A
:1001F0005B1C934203D2E05CCD5C401BF8D030BD69
:100200002DE9FF5F1D464FF0FF3BD5E901469146C2
:100210005F464FF00008A9697F1C01988847296A4A
:10022000824688470028F6D1BAF1FF3F0CD024F46B
:10023000C064002E19DD600614D5BAF12B0F09D069
:10024000BAF12D0F0ED103E0584604B0BDE8F09F7F
:1002500044F48064A9697F1C01988847761E824611
:10026000002E02DDBAF1300F03D0B9F1000F26D015
:1002700032E0A969761E44F400747F1C0198884717
:100280008246002E05DDBAF1780F06D0BAF1580F7C
:1002900003D0B9F1000F10D01EE0B9F1000F02D069
:1002A000B9F1100F18D1A969761E24F400747F1CCF
:1002B000019888478246102002E0082000E00A20CA
:1002C000814609E008FB0908A969761E44F4007418
:1002D0007F1C019888478246002E05DD494650461E
:1002E00000F0C1F90028EDDAE96901988847A00516
:1002F00002D46FF00100A8E7E00725D1600613D50E
:10030000600502D5C8F1000000E0404629680A1DDA
:100310002A600968220501D5087015E0220701D579
:10032000088011E008600FE02868011D296000685E
:10033000210502D580F8008006E0210702D5A0F84B
:10034000008001E0C0F8008038467EE72DE9FE4FCE
:10035000804681EA0300C00F0C46009021F0004166
:1003600023F00045B8EB0200A94105D240462146E2
:1003700090461C460B46024623F00040104347D0EF
:10038000270DC7F30A00C3F30A510290401A0190E7
:1003900040286BDAC3F3130040F4801B00989246A8
:1003A00020B10023D2EB030A63EB0B0B01985946F3
:1003B000C0F14002504600F025F906460D46504671
:1003C0005946019A00F03DF910EB08006141002404
:1003D00087EA115284EAE7731A4340D0009A62B365
:1003E000019A012A4FEA075215DC001B61EB02015A
:1003F0004FF0004202EA0752CDE90042001C41F5ED
:10040000801132462B4600F04BF903B0BDE8F08F67
:1004100040462146F9E7001B61EB0201001C41F553
:10042000801300185B412018A2F5001747EB030169
:1004300040EAD570B6196D4111E06D084FEA3606F5
:1004400045EAC0754FEA0752001B61EB0201001C30
:1004500041F5801149084FEA3000001951413246F8
:100460002B4603B0BDE8F04F00F00BB90098012215
:1004700040000023D0EB020263EBE07300982146BA
:100480004FEAE074B8EB000061EB0401E9E783F0A8
:1004900000435BE781F0004158E72DE9FE4F81EA18
:1004A000030404F0004421F0004100944FF0000BDD
:1004B00023F0004350EA01045ED052EA03045BD00B
:1004C000C3F30A54C1F30A552C44A4F2F334019443
:1004D000A0FB0254C1F3130141F48011C3F31303D1
:1004E00043F4801301FB024400FB034E840A970A85
:1004F00044EA815447EA8357A4FB076802958D0AB2
:1005000005FB07854FEA932C04FB0C542705029D3D
:100510004FEA065847EA1637B5EB08056EEB070CAD
:10052000870E920E47EA811742EA8312A7FB020167
:10053000B6EB0B0164EB00042B0D43EA0C335E18A1
:1005400044EB1C50DA465146E7FB0201C5F31304A5
:100550004FEA0B3343EA14534FEA0432019C43EA57
:100560000603A4F10C040294009CCDE900B400F051
:1005700097F803B0BDE8F08F00200146F9E73EB5DB
:10058000CA17CB0F002450405140C0186141DA0710
:1005900040F233430094CDE901232246234600F084
:1005A0007FF803B030BDC1F30A5210B5C1F3130197
:1005B00040F2FF3341F480119A4201DA002010BD6D
:1005C00040F233439A42A2F2334203DC524200F03B
:1005D00028F810BD904010BD30B50B4601460020F4
:1005E0002022012409E021FA02F59D4205D303FAF5
:1005F00002F5491B04FA02F52844151EA2F1010276
:10060000F1DC30BD202A04DB203A00FA02F10020A0
:1006100070479140C2F1200320FA03F31943904040
:100620007047202A04DB203A21FA02F000217047AB
:1006300021FA02F3D040C2F120029140084319464A
:100640007047202A06DBCB17203A41FA02F043EA32
:10065000E07306E041FA02F3D040C2F1200291407B
:100660000843194670473A2800D2303820F020025B
:10067000412A01D3A2F13700884201D34FF0FF3065
:10068000704710B5141E73F1000408DA401C41F1E4
:10069000000192185B411A4301D120F0010010BD06
:1006A0002DE9F04D92469B4611B1B1FA81F202E07C
:1006B000B0FA80F220329046FFF7A4FF04460F46BE
:1006C00040EA0A0041EA0B0153465A46084313D058
:1006D000114653EA010019D0C8F140025046FFF715
:1006E000A0FF05460E46504659464246FFF78AFF90
:1006F000084305D0012004E020463946BDE8F08DCE
:100700000020054346EAE0762C4337430A98630508
:10071000E40AA0EB08000022FD0A44EA47540A302C
:1007200002D500200146E9E7010510196941DDE91C
:10073000084500196941BDE8F04DA2E72DE9F04DEB
:1007400081EA030404F0004B21F0004514464FF009
:10075000000A23F0004150EA050220D054EA0102C9
:100760001DD0C5F30A570246C5F31303C1F31300A6
:10077000C1F30A5640F4801543F48013A7EB060832
:10078000101BD64608F2FD3873EB050002D308F1C2
:10079000010801E092185B41B8F1000F03DA002074
:1007A0000146BDE8F08D00204FF4801106468446D6
:1007B0000EE0171B73EB050705D3121B63EB050354
:1007C00006434CEA010C49084FEA300092185B419D
:1007D00050EA0107EDD152EA030012D082EA040088
:1007E00083EA0501084305D0101BAB4106D2012264
:1007F000002306E000224FF0004302E06FF0010208
:1008000053101AEB06004CEB085110EB0A0041EBB9
:100810000B01BDE8F04DFFF734BFC1F30A52C1F33D
:10082000130140F2FF3341F480119A4202DA0020B2
:100830000146704740F233439A42A2F2334202DC4F
:100840005242FFF7EEBEFFF7DDBE000030B5041EDA
:1008500071F1000404DB4FF00044404264EB0101FD
:10086000141E73F1000405DB1C464FF00043524296
:1008700063EB0403994208BF904230BD064C074D1C
:1008800006E0E06840F0010394E807009847103460
:10089000AC42F6D3FFF72EFCD4440008F444000821
:1008A00070B58C1810F8015B15F0070301D110F832
:1008B000013B2A1106D110F8012B03E010F8016B5F
:1008C00001F8016B5B1EF9D12B0705D40023521EE2
:1008D0000DD401F8013BFAE710F8013BCB1A921C4A
:1008E00003E013F8015B01F8015B521EF9D5A14248
:1008F000D8D3002070BDFEE77047000080B5082007
:1009000000F01CF868B101F003FA0649064A0860D5
:10091000486810448860082000F00AF80348012164
:10092000017080BD2C040020807EAA83A9040020D1
:1009300001490860704700BF140401401D490A685E
:10094000024018BF01224969084018BF0120104029
:10095000704700BF82791749FAB102680B68934368
:100960000B604B6893434B60037943EA010CDCF85E
:1009700000301A43CCF8002002688B6893438B60E8
:10098000CB689343CB60407910280ED18868104320
:100990008860C8681043C8607047027900681143D6
:1009A0000A6822EA000008607047084301681143A2
:1009B000016070470004014010B50C22084C0F2361
:1009C00002EA810201F0FC0103FA02FC0B5990409B
:1009D00023EA0C030B510A591043085110BD00BF04
:1009E00008000140084908444FEAB020062884BFA7
:1009F0000020704705A151F820008A490968084085
:100A000018BF0120704700BF00F8FEBF04000000BF
:100A1000080000001000000020000000400000005E
:100A200080000000000100002DE9F04391F803E090
:100A30000EF00F0C5FEACE6244BF8A784CEA020CDB
:100A400009880A0621D0036800224FF001094FF0FF
:100A50000F08002616E009FA06F70F4210D008FA30
:100A600002F40CFA02F5BEF1480F23EA040343EA4C
:100A7000050304D0BEF1280F08BF476100E00761FD
:100A800004320136082EE6D10360B1F5807F38BF0D
:100A9000BDE8F083436800224FF480794FF00F08DF
:100AA000002618E009FA06F707EA0105BD4210D151
:100AB00008FA02F40CFA02F5BEF1480F23EA040327
:100AC00043EA050304D0BEF1280F08BF476100E0E8
:100AD000076104320136082EE4D14360BDE8F0839B
:100AE0000F2984BF00207047F8B51D4617460E46F3
:100AF0000446FFF777FF18B92046012100F028F8D7
:100B00007DB9032F07D0022F0BD10120E168B0403F
:100B100021EA000003E00120E168B0400843022719
:100B2000E0606FF01F01082E28BF043420684FF0EA
:100B30000F0201EB860138BFB1008A40904320606C
:100B400045EA870088402168084320600120F8BDFD
:100B500091B13249884223D0314908444FEAB0204C
:100B6000052859D8DFE800F0033F44494E53B34805
:100B7000016841F008014EE02849884215D0284913
:100B800008444FEAB020052888BF7047DFE800F02E
:100B90000312171C2126A948016821F008013AE038
:100BA000A648016841F0040135E0A448016821F03D
:100BB000040130E0A148016821F010012BE09F48BA
:100BC000016821F0200126E09C48016821F04001E5
:100BD00021E09A48016821F080011CE097480168F3
:100BE00021F4807117E09548016841F0100112E08E
:100BF0009248016841F020010DE09048016841F001
:100C0000400108E08D48016841F0800103E08B4815
:100C1000016841F480710160704700BF0008014025
:100C200000F4FEBF18100240416170470161704737
:100C3000FEE7FEE7704700002DE9FF410446400152
:100C4000083000F5407000F0DBFC002860D022285E
:100C500070D1204601F008F800286BD0444F0646BA
:100C60000DF10A0003AB00902046324607F1440123
:100C700001F03EFE382E62D10546002861DD97E87E
:100C80000700D7E91B36002512BAC7E90B36394BE6
:100C90007A631944C7E90221411C0020FFF76FFC69
:100CA000364E354A33469046FFF7F7FBFFF77BFC9D
:100CB00000BA3860B86301F02BF83861F86800BA00
:100CC000F860F86301F024F8411C0020FFF757FC9E
:100CD00042463346FFF7E1FBFFF765FC00BA07F138
:100CE00014060DF10C08386438610DE0BDF80A00F7
:100CF0003146302243460090204601F0D9FF054698
:100D0000B0F1FF3F1FDD3D44AFB2302FEED111E017
:100D100010A0214602F060FE204602217B22002323
:100D200002F00CFA0546A04205D1104821467B226C
:100D300002F052FE0125284604B0BDE8F0810025EE
:100D4000F9E7104800E00E4821462A4602F044FE2A
:100D5000F1E700BF25643A4E545020736572766502
:100D6000722073746172740D0A0000002D44000833
:100D70002C040020807EAA838DEDB5A0F7C6B03E7E
:100D80005D44000844440008C2781449D2B110B54B
:100D9000174A0723126890F801E0847890F800C0A1
:100DA00023EA12220F23D340C2F1040223400EFA99
:100DB00002F21A4301EB0C03120183F80023BDE891
:100DC000104000E080310078012300F01F02C0F3E2
:100DD000421003FA02F241F82020704700E100E0DF
:100DE0000249084302490860704700BF0000FA0545
:100DF0000CED00E070470000044A002911680CBFA8
:100E000021EA000008431060704700BF1C10024038
:100E1000044A002911680CBF21EA00000843106051
:100E2000704700BF10100240044A002911680CBF2F
:100E300021EA000008431060704700BF181002400C
:100E4000044A002911680CBF21EA00000843106021
:100E5000704700BF0C1002400248016841F08071E9
:100E6000016070472410024010B57F4C226802F0E8
:100E70000C037E4A082B0FD12368C3F3834303F18D
:100E8000020C2368DB0301D4794A03E023689B0347
:100E900048BF774A0CFB02F202600F492368C3F394
:100EA0000313CB5CDA4042602368C3F30223CB5CBC
:100EB00022FA03F383602368C3F3C223C95C074BA0
:100EC00022FA01F1C1602268C2F381329A5CB1FB5F
:100ED000F2F1016110BD00BFF0430008DC430008DF
:100EE00001229D49B2EB501F04D04309022B0CBFD5
:100EF0002031243100F01F00096802FA00F0084098
:100F000018BF0120704700BF0248416801314160AD
:100F1000704700BF0404002010B586B041F2040001
:100F20000121FFF781FF1248F84C05A905902046E2
:100F3000FFF77AFD2046E021FFF778FE072004F551
:100F400020546946ADF81000002003900948029033
:100F50004FF4003001904FF082700090204600F076
:100F60001DF82046012100F007F806B010BD00BFB3
:100F7000E0000318010000020288002942F040034B
:100F800008BF22F04003038070470089084018BF63
:100F900001207047808970478181704702880B88E3
:100FA00002F441521A434B881A438B881A43CB8868
:100FB0001A430B891A434B891A438B891A43CB89ED
:100FC0001A430280828B22F400628283098A0182A2
:100FD00070477047AF484188013141804188B1F581
:100FE0007A7F22BF4188A1F2E73141804168013117
:100FF0004160DC480168022922BF016801390160B3
:101000008168022922BF816801398160C168022993
:1010100022BFC1680139C1604168022922BF41680D
:1010200001394160FFF770BF0F48016801F00C0201
:101030000E49082A0DD10268C2F3834203680232C6
:10104000DB0301D40A4903E003689B0348BF084956
:101050005143084A084B11600068C0F30310185C44
:1010600021FA00F0106070470410024000127A006C
:1010700000093D0020000020E043000882B036480F
:10108000364A016841F00101016041681140344A6B
:101090004160016811400160016821F48021016014
:1010A000416821F4FE0141604FF41F01816000217D
:1010B00001910091016841F480310160016801F4FF
:1010C00000310091019901310191009919B90199FB
:1010D000B1F5A06FF2D10168890354BF002101214D
:1010E00000910099012930D11E490A6842F010028E
:1010F0000A600A6822F003020A600A6842F00202EB
:101100000A604168416041684160416841F4806122
:101110004160416821F47C114160416841F4E8116B
:101120004160016841F08071016001688901FCD56E
:10113000416821F003014160416841F002014160D2
:10114000416801F00C010829FAD107484FF000610D
:10115000016002B0704700BF001002400000FFF8BD
:10116000FFFFF6FE0020024008ED00E070477047E8
:101170000288002942F0010308BF22F00103038026
:101180007047808C7047002A82890CBF22EA0101D7
:101190001143818170478184704700000288B0F15B
:1011A000804F0ED02E4B98420BD0194B984208D04E
:1011B000184B984205D0184B984202D0174B9842D2
:1011C00003D14B8822F070021A4310B5144C40F43E
:1011D0008063A342BDE8104003D0CB8822F4407264
:1011E0001A4302808A8882850A8802850D4A024451
:1011F0004FEAB222072A07D8012303FA02F212F0BB
:10120000E50F1CBF097A018601218182704700BF6A
:1012100000080040000C004000340140002C014058
:101220000014004000D4FEBF1FB502200121FFF7CB
:10123000E3FD00200A4C01A98DF80C004FF47A70F0
:101240000290482001902046FFF7A8FF2046012188
:101250000122FFF798FF20460121FFF789FF1FBDFC
:101260000004004010B5B34C40F22551204600F078
:10127000D8F870B13B483222A188826005480278D4
:10128000531C024403701172D9B2142904BF002107
:10129000017010BD10040020BFB500200121ADF881
:1012A0000C0001904FF4402002904FF4E130009088
:1012B00044F20400FFF7B8FDCB4D05F5405420463D
:1012C00000F060F828460121FFF742FC4FF0007063
:1012D00009210222032328612846FFF701FC284642
:1012E0000A2101220023FFF7FBFB6946204600F09C
:1012F000D1F8204640F22551012200F0B3F82046F3
:10130000012100F035F800F01BF9BFBD00080140D5
:101310001CB53D4C40F22551204600F082F890B1BA
:1013200010483222DFF840C0A188C2600F489CF804
:101330000020531C8154D8B28CF800300A2804BF16
:1013400000208CF80000204640F2244100F069F8AB
:1013500038B1208832210190A0880190019801487D
:10136000C1601CBD10000020A8040020380B002024
:101370008289002942F4005308BF22F4005383817C
:101380007047000080B52049884218D01F49884224
:101390001DD01F49884222D01E49884227D0654966
:1013A000884218BF80BD4FF480400121FFF748FDFF
:1013B0004FF480400021BDE88040FFF741BD4FF46D
:1013C00000300121FFF724FD4FF4003016E04FF408
:1013D00080200121FFF71CFD4FF480200EE04FF428
:1013E00000200121FFF714FD4FF4002006E04FF428
:1013F00080100121FFF70CFD4FF480100021BDE8A3
:101400008040FFF705BD00BF004400400048004099
:10141000004C0040005000400088084018BF0120E8
:10142000704701F01F02012303FA02F2C1F34213D5
:10143000022B06D0012B14BF00F1140300F10C03A2
:1014400001E000F110031B88090A1A404FF0010364
:1014500018BF0122008803FA01F1084018BF0120DB
:101460001040704701F01F0C012303FA0CFCC1F37C
:1014700042131421022B08BF1021012B08BF0C219D
:10148000002A42580CBF22EA0C0242EA0C024250E7
:101490007047000070B586B00446008A0D46C988C2
:1014A00001AE20F4405008434EF6F3112082A0898B
:1014B0000840A98808432989084369890843A0810D
:1014C000A08AA98920F440700843A0823046FFF723
:1014D000CBFC184906F1080002226FF063038C422E
:1014E00008BF06F10C001921042600684843B4F92E
:1014F0000C100029B8BF012229689140B0FBF1F01F
:101500006421B0FBF1F202FB0300B4F90C30002BB4
:10151000B8BF0326B0403230002BB0FBF1F04FF0E3
:101520000F01B8BF0721084040EA0210208106B031
:1015300070BD00BF003801406FF35F2181807047AC
:10154000E0B54FF4E060FFF74BFC4FF48170ADF86D
:10155000060025208DF8040001A8FFF715FC8CBDBE
:10156000FEE70000F0B585B0012001210126FFF75C
:101570005BFC04200121FFF757FC1A481A4C04AD0C
:101580001A4F294604902046B84720460421FFF709
:101590004BFB1748294604902046B8471548294672
:1015A00004902046B84720460121FFF73FFB124830
:1015B000019001A8FFF7E8FB002003210024FFF7BA
:1015C000FBF94FF440608DF80E60ADF80C00082078
:1015D000029002A8FFF7BEF908480470FFF79CFCD0
:1015E00005B0F0BD0400011000080140290A000800
:1015F000080003480100031009020201A9040020A9
:10160000BCB5CD4D0446E868804768698047686A84
:1016100070B1AA6A62B1200A8DF8074003218DF8E3
:101620000600200C8DF805000DF1050090470AE03A
:10163000296AC4F307408847296AC4F3072088470A
:10164000296AE0B28847E86980470446A86980476C
:1016500028698047204602B0B0BD00BFF8B5B64F3C
:10166000064614460D46F868804778698047786AD0
:1016700090B1BA6A82B1300A8DF8036003218DF807
:101680000200300C8DF801000DF1010090477A6ADC
:1016900028462146904712E0396AC6F3074088473A
:1016A000396AC6F307208847396AF0B2884704E0F0
:1016B000F869804705F8010B013C002CF8D1B869A6
:1016C000804738698047F8BDF8B59B4E05460C4603
:1016D000F068804770698047B26A45F004076AB1D4
:1016E000280A8DF803408DF8027004218DF801005E
:1016F000280C8DF80000684690470DE0316AC5F36C
:1017000007408847316AC5F307208847316AF8B235
:101710008847316A20468847B069804730698047EA
:10172000F8BD00BF2DE9FC41834F064614460D4627
:10173000F868804778698047BA6A46F0040882B141
:10174000300A8DF8078003218DF80600300C8DF8E3
:1017500005000DF105009047BA6A284621469047DA
:1017600013E0396AC6F307408847396AC6F3072091
:101770008847396A5FFA88F0884704E015F8010B5A
:10178000396A8847013C002CF8D1B869804738692C
:101790008047BDE8FC8100BF024900F07F0008607F
:1017A000704700BF002C0040082801D9FF202EE020
:1017B00070B504464001102100F1080606F5807559
:1017C0002846FFF781FF2846FFF71AFF0028FAD1C5
:1017D00006F500701F21FFF777FF8C490120A0401C
:1017E0000A8882430A804A8822EA00000022488050
:1017F00001EB44008281081906F54074027120460D
:10180000FFF7FEFE0028FAD10120BDE8704040B28B
:10181000704700BF10B5052809D80C46DFE800F076
:1018200003090D12161A204601F03EFF15E0FF20B5
:1018300014E0204601F090FE0FE02078BDE8104053
:1018400001F05ABF01F0AEFE207006E0204601F024
:1018500065FF02E0204601F0A9FE002040B210BD65
:10186000B0B50F2800F266800C46DFE800F0080BE8
:1018700014171B1F222D3A484B4F6053585B01F041
:1018800065FF54E02146002C204618BF0831BDE812
:10189000B04001F09FBE01F043FE20E0208801F03F
:1018A00027FE44E0208801F0F1FE40E001F047FE11
:1018B00015E061784FF49850FFF706FF21784FF458
:1018C000A050FFF701FF32E04FF49850FFF798FE69
:1018D00005464FF4A050FFF793FE40EA0520208014
:1018E00025E0154881782170C17861700179A17077
:1018F0004179E170002180796171207117E001F078
:10190000C7FF14E0204601F0DAFF10E0204601F0A6
:1019100077FF0CE02078BDE8B04001F0F6BF01F0A1
:10192000ABFF01E001F0A0FF411C03D020700020BC
:1019300040B2B0BDFF20FBE724000020054A5368F9
:1019400092689A1A0A23B2FBF3F20260042008702C
:10195000704700BF0404002081B001E00098013806
:10196000009000980028F9D101B0704782B0019032
:101970000020009041F650100199484301E0009882
:101980000138009000980028F9D102B0704700009B
:1019900070B5082801D9FF2021E00446400100F17C
:1019A00008052846FFF72CFE00F00F00012815D18E
:1019B00005F5807608213046FFF786FE3046FFF7B2
:1019C0001FFE0028FAD111490120A0404A88824315
:1019D0004A800988084204D0002000E0FB2040B281
:1019E00070BD05F5007605F540752846FFF708FE41
:1019F00048B13046FFF704FE0007F6D52046FFF752
:101A0000D3FEF320EBE70120E9E700BFE603002067
:101A10002DE9F84F9A461646009101F0DDFF0027A8
:101A20000FF2B4092EA40FF2BC0B24E01DB927A0BD
:101A3000394601F0D1FFF15D484601F0CDFF0F2D91
:101A400018D1204601F0C8FFA7F10F05FEF79CFB57
:101A500080460AE0705DD8F80010095C11F03E0F76
:101A600008BF2E2002F032FC0135BD42F2DD58469F
:101A700002F032FC013707F00F055745D6DB05B3FE
:101A80000AF110000024C01B401B00EB400000F1D5
:101A9000020803E0202002F019FC01344445F9DB80
:101AA0007D1B0CE0FEF770FB0146705D0968095C68
:101AB00011F03E0F08BF2E2002F008FC01355545FD
:101AC000F0DB0098BDE8F84F01F086BF3078253094
:101AD0003478203A200000002530327820000000C1
:101AE000202000000D0000002DE9F0418046CE4886
:101AF0000D460024471C5B4806680BE017F8010CF4
:101B0000A84205D1384641462A46FEF76CFB28B16B
:101B100058370134B442F1DB4FF0FF342046BDE8C2
:101B2000F08100BFB0B5074D044628464021FFF7BD
:101B300073FC0028F9D0E1B22846FFF7FDFC2046EF
:101B4000B0BD00BF003801402DE9F04106466FF0FE
:101B50000300002E66DB0F4642490968B142D8BF38
:101B6000BDE8F081DFF8C082582015461C4606FB10
:101B70000081487BA0F141023870032A1AD3022861
:101B800018D0062801D004284AD1582106FB01812B
:101B90000A6D22B101F110000E3190473878042807
:101BA00029D1582006FB008707F11000FEF714FB2F
:101BB000B87324E00A6D32B1582006FB008101F1B0
:101BC00010000E319047582000224FF0FF3306FBE3
:101BD0000080817B002908BF04212160006907E0A3
:101BE0001944013BC90040FA01F1A95401322168AE
:101BF0009142F5DC11E0582006FB0080807BC2B2E8
:101C00005820002106FB00802260103003E0425C77
:101C10006A54013122689142F9DB0020BDE8F0816D
:101C20006FF00400BDE8F08184466FF00300BCF162
:101C3000000F16DB0B4B1B686345D8BF70477A4813
:101C400058230CFB030C00231CF8010B107004E05C
:101C50001CF80300C85401331078C0B28342F7D394
:101C600000207047044400082DE9F041400100279E
:101C7000083000F51C5800F518552846FFF7C0FC41
:101C800006464046FFF7BCFC40EA062444B128461D
:101C9000FFF7B6FC06464046FFF7B2FC40EA0627CF
:101CA000B8B2844208BFBDE8F081E6E72DE9F04113
:101CB00042F20801002741EA401404F580782046EA
:101CC000FFF79EFC06464046FFF79AFC40EA0625D1
:101CD00045B12046FFF794FC06464046FFF790FCCE
:101CE00040EA0627B8B2854208BFBDE8F081E6E7C2
:101CF00000234FF0000C8B42A4BF60467047002BBE
:101D000018BF4FEA0C2CC25C01334CEA020CF2E71C
:101D100010B5054804880548FFF733FA4FF47A7187
:101D200004FB010010BD00BF1204002000040040AD
:101D300010B5FFF7A3F9FFF777F925484FF47A714B
:101D40000068B0FBF1F00138B0F1807F00D3FEE70E
:101D50002049F02248602048027000208860072057
:101D600008607E20FFF7BCF81C4928B14FF4003012
:101D70000860FFF771F801E002200860FFF78CFAB5
:101D80000120FFF7F3FD01F0C1FA15A002F0A4FA5B
:101D900000F0C6F9184C194919A0616001F01CFE49
:101DA00000F0F0FEFFF740FA5320042384F82200ED
:101DB00045F24700208417486061174800F1080188
:101DC00004C862620322BDE8104001F0F5B800BF0C
:101DD0002000002010E000E023ED00E010080140AA
:101DE0000D0A4C6F616420573535303020636F6EBB
:101DF000666967210D0000002C0400207EBBFC5C9E
:101E00000D0A6D616B6554696D65203A25750D0A83
:101E100000000000240100F40400002002486FF0DC
:101E20000401C0F8201270476800002070B598B017
:101E3000002201236C46CDE915321792064A08CAE2
:101E4000084D52F8046B043D44F8046BF9D103A229
:101E500001F012F818B070BD844300087075626C10
:101E60006963000054000000B0B5114B184440787D
:101E7000030603D40F4808444270B0BD0D4B00F078
:101E80007F004FF0FF0E1944082301F1010C0CE014
:101E90000EEA0205A3F10801441E0EFA03FE083300
:101EA00025FA01F10CF8001020460028F0D1B0BD51
:101EB000280700203009002070B5082801D9FF202C
:101EC0002BE00446400100F108063046FFF798FB7E
:101ED00000F00F00012818D106F540752846FFF7DD
:101EE0008FFB132813D106F5807602213046FFF7C9
:101EF000EBFB3046FFF784FB0028FAD12846FFF7BA
:101F00007FFB142805D1012007E0FB2005E0FD2020
:101F100003E02046FFF748FCFC2040B270BD000003
:101F20002DE9F041044640011646884600F10807B5
:101F300007F54070FFF764FBB0B3132843D01C28AB
:101F40004BD0172856D107F500763046FFF758FBDF
:101F5000C00707D040A0214601F03EFD30460121D8
:101F6000FFF7B2FB2046FFF77FFE002842D007466E
:101F700064282046414628BF64273A4600F042FCC8
:101F8000012839DB00200BE0381A08EB050182B28A
:101F9000204600F003FE0646B0F1FF3F2EDD70192B
:101FA00085B2AF42F0D125E017A0214601F014FD23
:101FB000204601213246002301F0C0F80646A04227
:101FC0001FD115A013E017A02146324601F004FDF1
:101FD0002046FFF771FFBDE8F08118A0214601F00F
:101FE000FBFC2046FFF7D4FC012805D117A02146B1
:101FF00001F0F2FC012604E0064602E02046FFF76D
:10200000D3FB3046BDE8F08125643A4C425453740A
:102010006172740D0A00000025643A4F70656E65A8
:10202000640D0A0025643A4C697374656E2C207047
:102030006F7274205B25645D0D0A000025643A43CD
:102040006C6F7365576169740D0A000025643A432B
:102050006C6F7365640D0A0025643A436F6E6E659C
:10206000637465640D0A0000FFF762FE7F20FFF7CE
:1020700093FB01F0EDF8F9E7F8B5054606200E46AA
:102080001446002388704FF63070321D08802946B0
:1020900011F8010BF07002E0C85CD05401332878CD
:1020A0008342F9D3697BA1F14102032A1BD30229A0
:1020B00019D0062901D004292FD13718042904D1B9
:1020C00005F11000FEF788F8A873B81D05F110019E
:1020D000002202E08B5C83540132AB7B9A42F9D33D
:1020E0002878697B06E00422AA7332182B691BBA90
:1020F000C2F80630304401712878A97B3044417120
:102100002878A97B0844043070702878A97B08449B
:1021100006302060002001B0F0BD6FF00400FAE747
:10212000B0B586B023490020FFF774FB22A002F06F
:10213000D3F8284C01202146FFF76CFB0DF112016A
:102140000820FFF78DFBA07D0DF11201022814BFBE
:1021500021A02AA001F040FCE0782579217862785E
:10216000A37894F805C08DE821102C482C4DA84781
:10217000607AA179E279237A00902A48A847607CA6
:10218000A17BE27B237C00902748A847607BA17A53
:10219000E27A237B00902548A847607DA17CE27C01
:1021A000237D00902248A84722A002F095F806B0AF
:1021B000B0BD00BF500000200D0A536574204E656D
:1021C00074776F726B20696E666F726D6174696F80
:1021D0006E0D00000E0500200D0A3D3D3D202573CB
:1021E000204E455420434F4E46203A20537461748C
:1021F0006963203D3D3D0D0A000000000D0A3D3D94
:102200003D202573204E455420434F4E46203A2012
:1022100044484350203D3D3D0D0A0000084400085D
:10222000D93900089B440008AE44000888440008DF
:10223000C14400083D3D3D3D3D3D3D3D3D3D3D3DB5
:102240003D3D3D454E443D3D3D3D3D3D3D3D3D3D9E
:102250003D3D3D0D00000000BFB5184C6A46D4F866
:102260000412204600F098F9009D605D042809D111
:102270000198062806D1029811A106222044FDF7F4
:10228000B2FF18B14FF0FF3004B0B0BD0398611930
:10229000451BD4F804022A462844C4F80402BD4C65
:1022A000D4F804022044FDF773FFD4F80402284454
:1022B000C4F8040200F024F82844E5E728070020C9
:1022C0007075626C69630000027813065EBF0A6075
:1022D0000120704780B500F1020C02F07F024078C7
:1022E0000023A2F1010E9E45086004BF981C80BD2A
:1022F00002020A601CF80320013342EA0020F2E7E0
:102300002DE9F04F91B0A24E0DAAD6F80412304636
:1023100000F042F9DDF834A04FF0FF3516F80A80DE
:10232000A8F1A000032800F28480022800F0818038
:102330000F98984F06EB0A01A0EB0A09D6F80402A1
:102340004A4600EB0904D7F80402C6F804423844B0
:10235000FDF71EFFD7F80402384D09AA214648446C
:10236000C7F80402A22007F80A003046A8470999D6
:102370000C9AD6F80402A2EB010B314400EB0B04DB
:10238000D7F804025A46C6F804423844FDF700FF65
:10239000D7F8040205AA21465844C7F8040230467B
:1023A000A8470599089AD6F80402551A31444419E9
:1023B000D7F804022A46C6F804423844FDF7E8FE7E
:1023C000D7F804021D4B01AA21462844C7F804028D
:1023D000304698470199049AD6F80402541A3144B9
:1023E00020442246C6F80402D7F804023844FDF718
:1023F000CFFED7F804022044C7F80402404600F09C
:1024000085F8411C13D00BEB0901294421440D1818
:10241000504651462A46FFF727FDE048C17841B1B2
:10242000079A8078B95403990130785401E04FF04D
:10243000FF35284611B0BDE8F08F00BF9925000890
:102440007FB5EE4E6A46D6F80412304600F0A4F886
:10245000009C305D30281ED102983119051BD6F83A
:1024600004022A462844C6F80402E54ED6F80402BF
:102470003044FDF78DFED6F804022844C6F8040265
:1024800000F08EF9411C06D0421920462146FFF784
:10249000EBFC002001E04FF0FF3004B070BD00BF46
:1024A0002DE9F04385B0D54F8846814601AAD7F87B
:1024B0000412384600F070F8019EB85D30281FD134
:1024C0000398CF4DB919841BD7F804022246204443
:1024D000C7F80402D5F80472E819FDF759FED5F8DB
:1024E000040241462044C5F80402484600F074F84E
:1024F0000546304639462A46FFF7B6FC281901E062
:102500004FF0FF3005B0BDE8F08300BF2DE9FF4775
:10251000BA4D82466A46D5F80412284600F03CF8C7
:10252000DDF8009015F8090030282BD10298B44F3F
:1025300005EB0901A0EB0906D5F80402D7F80482DF
:102540003246841907EB0800C5F80442FDF720FE67
:10255000D7F8040230440026C7F80402002707E039
:1025600050463146FFF79CFFD5F804420744013638
:10257000D5F800028442F3DB484641463A46FFF76D
:1025800073FC01E04FF0FF37384604B0BDE8F08738
:1025900028070020300900202DE9F0414D1C02F1F0
:1025A000040807460E461160144628444146FFF7CA
:1025B0008BFE2844A060B95DA1F1A002032A01D8D6
:1025C000022A04D1302902D0D8F800100844E06073
:1025D0000020BDE8F08100002DE9F04F8BB0874D61
:1025E0008846074607AAD5F804122846FFF7D4FF05
:1025F000079C285D062821D1DDE9081005EB040AB7
:102600002844FFF771FA0646A32F03D0A12F18D054
:10261000A02F3FD10A985146A0EB0409D5F8040237
:10262000774C4A464844C5F80402D4F804022044D2
:10263000FDF7AEFDD4F80402484427E04FF0FF3028
:10264000A7E0DFF8E4BA06210136DBF804020BF854
:1026500000100A985049A0EB0409D5F80402096853
:1026600000EB0904DBF804028E42C5F8044258442A
:1026700065DA811C421C3046FFF7D6FADBF804020B
:102680000BEB0001497801F1020948445C49C1F8AB
:10269000040201E04FF00009D5F8041203AA28460D
:1026A000FFF77AFF701C58D047F00100A12822D113
:1026B000534C0DF10B0101ABD4F804022044821CF1
:1026C0003046FFF741FAD4F804029DF80B10069A41
:1026D00021540199D4F804028F1C204441700399BD
:1026E000D4F80402511A3844C4F80402D5F804425C
:1026F00005F5017020E0A32F4F4648D1DDE90372B4
:102700000598CDF80080EB5D2918304600F076FB87
:102710000698E919C41BD5F8040222462044C5F8DE
:102720000402374DD5F804022844FDF731FDD5F8F1
:10273000041205F5017027462144016027E0514647
:102740004A46FDF725FDDBF8040203AA214648446A
:10275000CBF804022948FFF71FFF03980699284C7D
:102760000F1AD5F804123A463944C5F8041229184C
:10277000D4F804022044FDF70BFD08480221C17083
:1027800080F80280D4F804023844C4F8040207EB4D
:1027900009000BB0BDE8F08F0444000804040020D9
:1027A000BFB5164C6A46D4F804122046FFF7F4FE73
:1027B0000098215C022902D10299615C11B14FF0AD
:1027C000FF3018E0039A2118151AD4F804022A469B
:1027D0002844C4F804020A4CD4F804022044FDF74B
:1027E000D7FCD4F804022844C4F80402FFF734FDEF
:1027F000411C18BF284404B0B0BD00BF280700200A
:10280000300900202DE9FE4F082802D94FF0FF378C
:1028100067E00446400193460D4600F1080A504621
:10282000FEF7EEFE00F00F00012836D1BBF1000FDD
:1028300036D00AF5F0500195FEF7E2FE00F03F01B8
:10284000DFF8089A0AF54075BBEB812F88BF4FEA85
:10285000802B012000FA04F80AF5F8500290204677
:10286000FFF702FA06462846FEF7CAFE17280CD0E4
:102870001C2818D1F6B92046FFF718FA0746029827
:10288000FEF7BEFEB7EB802F0DD0B9F8000018EAB6
:10289000000F0ED1002EE2D00CE06FF0040720E014
:1028A0006FF00D071DE02046FEF77EFF6FF0060774
:1028B00017E0D6B11FFA8BF0864238BFB3461FFA35
:1028C0008BF7019920463A4600F09CFD0AF580748A
:1028D00040212046FEF7F8FE2046FEF791FE002834
:1028E000FAD1384603B0BDE8F08F0027F9E700BF02
:1028F0002DE9F04F85B0082802D94FF0FF3005E1EF
:10290000044640019B4692460E4600F108052846C3
:10291000FEF776FE074600F00F000238022848D87E
:10292000BAF1000F48D0DFF8249909EB44018889F7
:102930000291CDE90065002841D0002507F007008D
:10294000042852D0032878D0DDE90167022840F03E
:10295000A880BD89002D40F09D80DDF8388003A956
:1029600020460822354600F04DFD06F580754021D1
:102970002846FEF7A9FE2846FEF742FE0028FAD1B7
:102980009DF80C008BF800009DF80D008BF80100FD
:102990009DF80E008BF802009DF80F008BF80300E5
:1029A000BDF8100000BA000CA8F80000BDF8120035
:1029B00069E06FF00400A9E06FF00D00A6E00120CF
:1029C00005F5407600FA04F82046FFF74DF9054674
:1029D0003046FEF715FE002869D0B9F8000018EA65
:1029E000000F67D1002DEFD0A8E7029F019EBD899F
:1029F000002D68D103A92046022200F003FD06F550
:102A0000807540212846FEF75FFE2846FEF7F8FD58
:102A10000028FAD1BDF80C006FF0010100BA01EBFB
:102A2000104540F2EB51A8B2BD81884247D3204601
:102A3000FEF7BAFE6FF47A7068E0029F019EBD89CE
:102A400045BB03A92046062200F0DCFC06F5807594
:102A500040212846FEF738FE2846FEF7D1FD002823
:102A6000FAD19DF80C008BF800009DF80D008BF852
:102A700001009DF80E008BF802009DF80F008BF806
:102A80000300BDF8100000BA8021050C09EB04001A
:102A9000BD810171554588BF5546009920462A469B
:102AA00018E02046294600F0D7FCBD8114E06FF005
:102AB00003002BE0002D7FF441AF002026E009EB5E
:102AC000040080210171A8B2504588BF5546009985
:102AD000AAB2204600F096FC06F5807640213046EA
:102AE000FEF7F2FD3046FEF78BFD0028FAD1B889DB
:102AF00009EB0402401BB8810004A8B20FBF0021FB
:102B000009EB0401097941F00101117105B0BDE83B
:102B1000F08F00BF00290A46034618BF0122002893
:102B200018BF01231A40064B044A18BF0A4612492F
:102B300018BF0346C1E90532704700BF13350008CE
:102B400015350008DFF830C0BCF800309B0500D414
:102B5000FEE700290B46024618BF0123002818BFD4
:102B600001221A40054A18BF0A46054918BF014606
:102B7000CCE90712704700BF240000204937000845
:102B80004537000803480021018003480021FEF773
:102B900002BB00BF12040020000400402DE9F84FE2
:102BA000082802D94FF0FF377EE00446400117465F
:102BB000884600F108063046FEF722FD00F00F00BF
:102BC000012824D137B306F540794846FEF718FDB1
:102BD0001C2801D0172865D1DFF870B6012000FA53
:102BE00004FABBF802001AEA000F20D006F50075BF
:102BF0002846FEF705FDC1060FD400F01F000007B0
:102C00004BD52046FEF7D0FD6FF00C074CE06FF07F
:102C1000040749E06FF00D0746E028461021FEF753
:102C200053FDBBF8020020EA0A00ABF8020006F5EB
:102C3000F850FEF7E5FC00F03F01B7EB812F88BFAD
:102C40008702BFB22046FFF731F805464846FEF737
:102C5000D7FC172818BF1C2821D1AF4204D9BBF8D4
:102C6000000010EA0A0018D1AF42EBD820464146D6
:102C70003A4600F00FFC06F5807420212046FEF74E
:102C800023FD2046FEF7BCFC0028FAD1BBF8020069
:102C900040EA0A00ABF8020006E0002704E0204604
:102CA000FEF782FD6FF00607384601B0BDE8F08FF1
:102CB0002DE9F84F082802D94FF0FF379AE0064671
:102CC00040011C461746884600F108094846FEF7B1
:102CD00097FC00F00F00023802280CD8002F78D0A3
:102CE000206800BA50B94846FEF78AFC400705D470
:102CF0006FF00B077EE06FF004077BE0DDF828A0A3
:102D0000BAF1000F07D14846FEF77AFC400702D41B
:102D10006FF00A076EE009F540752846FEF770FC73
:102D2000222818BF422857D109F5406021460422C5
:102D3000FEF7F8FC09F580504FEA1A21FEF7C4FCB3
:102D400009F588505FFA8AF1FEF7BEFC09F5F850E4
:102D5000FEF756FC00F03F01DFF8F0B4B7EB812F2F
:102D600088BF8702012000FA06FABFB23046FEF79C
:102D70009DFF04462846FEF743FC90B3A74204D9C2
:102D8000BBF8000010EA0A002ED1A742EED8304668
:102D900041463A4600F07EFB09F58074202120462A
:102DA000FEF792FC2046FEF72BFC0028FAD109F52D
:102DB00000742046FEF724FCC10617D400F01F0063
:102DC0000007F6D520460821FEF77EFC6FF00C07C1
:102DD00010E06FF00D070DE03228A5D06FF0060768
:102DE00008E06FF0030705E0002703E0204610210C
:102DF000FEF76AFC384601B0BDE8F08FB0B5DFF8E9
:102E000074C01546582200FB02C2527B9A421AD166
:102E1000A3F14102032A1ED3022B1CD0062B01D0A2
:102E2000042B15D1582200FB02C202F1100300222C
:102E300002E08C5C9C540132AA42FADB582100FB70
:102E400001C0857313E00498A44988700320C870FA
:102E50006FF00400B0BD582200FB02C408462946AA
:102E6000FEF746FF2061A573616D01B18847002020
:102E7000B0BD00BF6800002081B02DE9FF4FDFF832
:102E800028B101904FF48060494C00269246884654
:102E90000D930296ABF804004448CBF800001046AE
:102EA000A0478BF806005046A04702460BF10700EA
:102EB0005146FDF76DF95046A047C0B206219DF876
:102EC0003450259C0BEB000300F1080959724FF6B2
:102ED000A471A3F807109D720DA9DDE923CE01317D
:102EE00003E08A5D9F190136FA72B542F9D19D1946
:102EF0004FF48861FF22304402AFA5F80B1000F1B7
:102F00001C0698F80010697398F80110A97398F8D6
:102F10000210E97398F80310EA76264A4FF0000889
:102F2000C5F817204FF4817285F816E0AA8285F85B
:102F300013C0A5F81120297426A903910CE0039869
:102F40003A46011D03910BEB06010068FFF794F868
:102F50000298013C80440644002CF0D1B01E85F854
:102F60001B808BF801005046FDF736F906F1F7019A
:102F70005A4CA2220023A225081A02210BF80900AC
:102F8000607800F0DBF86078019BB2B2594600959A
:102F9000FFF78EFE6078FEF707FC002004B0BDE866
:102FA000F04F01B0704700BF2505002030FF02013F
:102FB000D901000843010030F8B505460BA01E46B4
:102FC00017460C4601F088F94448082F46700770F0
:102FD00094BF082EF8BD41688160FEF71FFF2846A8
:102FE0002146BDE8F840FEF721BF00BF0D0A202DA5
:102FF00020534E4D50203A20537461727420534E2A
:103000004D50204167656E74204461656D6F6E0D93
:10301000000000007FB5314E3078082802D96FF0EB
:10302000620158E04001083000F54070FEF7E8FA10
:10303000E8B322284ED13078FEF716FE002845D09E
:10304000334D024602A930780DF10A03009129465A
:10305000FFF74EFC0128C5F800023BDB314903466F
:103060002CA02A46FEF7D4FC2F4C00204FF4007110
:10307000C5F804027080C4F804022046FDF7A1F8E8
:10308000FFF7DEF901300AD0BDF80810B4F80422C9
:1030900030780DF10A0300912146FFF709FED4F8BC
:1030A0000432204921A02246FEF7B2FC12E030781B
:1030B0000221A122002300F041F80146307881422C
:1030C00009D107A0A12200F087FC03E010480021ED
:1030D000C0F800120121084604B070BD04040020AD
:1030E000202D205B25645D2055445020536F636B79
:1030F000657420666F7220534E4D50204167656E97
:10310000742C20706F7274205B25645D0D0A0000C2
:10311000280700200D0A5B526571756573745D0D9B
:103120000A000000D1440008300900200D0A5B525B
:103130006573706F6E73655D0D0A00002DE9FC41CB
:10314000082801D9FF207BE00446881E1D4616464C
:103150000F4603280BD2680707D405B3022F15D0FA
:10316000012F1CD115F0210F19D1FA2068E0012F91
:103170000AD101A94FF470600422FEF76FFA01989A
:103180000028E8D1FD205BE0FB2059E005F0A0011C
:10319000FA20202954D005F09001102950D0204663
:1031A000FEF702FB05F0F00040EA0701600100F1C4
:1031B00008073846FEF788FA0EB1310A11E02248B6
:1031C0004FF6F0730688711C8AB29A4204BF4CF223
:1031D0000001CFF6FF7101804FEA162108BF6FF0A2
:1031E0001006DFF85C8507F58060C04707F5A06032
:1031F000F1B2C04707F5807601213046C04730461E
:10320000FEF7FEF90028FAD110490120A0404A88B3
:1032100082434A8005F0010207F540750B88A24001
:1032200023EA000010430022088001EB4400828161
:10323000081902712846FEF7E3F90028FAD0204663
:1032400040B202B0BDE8F081D8030020E6030020C0
:10325000B0B50020FDF7F0FCB0F1FF3F03DC014604
:103260001E4800F0B9FBFFF7D5FE1D480168012993
:1032700011D11F4C002505601AA0214600F0ACFBBF
:103280001C48007802E004F8015B01380028FAD1FC
:103290001948002101701949012041F28832FEF7D6
:1032A0003FFEB0F1FF3F03DC01460C4800F094FB09
:1032B00013480178012903D10021017000F04EFB71
:1032C00010480168B1F57A7F38BFB0BD00210160B8
:1032D0000D48416801314160B0BD00BF7444000831
:1032E0001800002055415254313A25730D0A000050
:1032F000180400200044000810040020AA04002044
:10330000A9040020140400202C040020B0B586B0CD
:103310004FF00230CDE90300CDE90100FEF722F9BC
:10332000204C04212046FDF77FFC41F28830FEF757
:1033300013FB1D481D49FFF7EDFB1D481D49FFF715
:1033400001FC20460421FDF771FC42F21070FEF7EB
:1033500003FB01A90120FEF783FA01301ED00DF115
:10336000170415A50F202146FEF77AFA013002D185
:10337000284600F0B1FF9DF817000028F2D04FF466
:10338000807005A9ADF814000420FEF769FA013039
:1033900002D110A000F0A0FF06B0B0BD12A000F056
:1033A0009BFFFEE700080140813600081935000840
:1033B00051360008CD370008556E6B6E6F776E2062
:1033C000504859204C696E6B207374617574732E6C
:1033D0000D00000043616E6E6F7420736574206988
:1033E0006D722E2E2E0D000057495A434849502029
:1033F000496E697469616C697A6564206661696C9B
:103400002E0D00003AB32DE9F843460114468846D4
:1034100006F1080505F520594846FEF7F1F805F5CF
:10342000245507462846FEF7EBF840EA072706F141
:1034300018004146224600EB0720FEF70FF93C44F6
:10344000A0B2010A4846FEF73FF9E1B22846BDE8BE
:10345000F843FEF739B97047F8B540010C4600F162
:10346000080707F520552846FEF7CAF807F5245740
:1034700006463846FEF7C4F840EA06200444A0B2E7
:10348000010A2846FEF720F9E1B23846BDE8F840C7
:10349000FEF71AB93AB32DE9F843460114468846B7
:1034A00006F1080505F510594846FEF7A9F805F597
:1034B000145507462846FEF7A3F840EA072706F109
:1034C00010004146224600EB0720FEF72BF93C4452
:1034D000A0B2010A4846FEF7F7F8E1B22846BDE877
:1034E000F843FEF7F1B870470078704701707047F5
:1034F00010B5044600F0F0014FF4A850FEF7E4F8D0
:10350000210A4FF4B850BDE81040FEF7DDB870470F
:1035100070477047704700005B480121FDF786BB8C
:1035200010B54FF4A850FEF76BF804464FF4B850AE
:10353000FEF766F804F0F00141EA002010BD10B576
:103540004FF4B050FEF75CF804464FF4C050FEF75D
:1035500057F844EA002010BDB0B50446994D4FF429
:10356000106006222146A84704F10E014FF4807036
:103570000422A84704F10A014FF4A0600422A847DE
:10358000A11D4FF470600422A8475A484178A174E5
:103590008178E174C1782175017961750078A07531
:1035A000B0BD00BF0020FEF72BB8000070B5084E7C
:1035B00004464FF4D850B04720704FF4C850B0477D
:1035C00005464FF4D050B04740EA0520608070BDFA
:1035D00001160008F8B50C46054600F0B7F8C5B16D
:1035E00000200021082808D22A5C49B20130114489
:1035F0000A06B2F1805FF5DD18E0002741F6087693
:1036000005E0E95D3046FEF75FF820360137082F08
:10361000F7D1CCB100200021082809D2225C49B2A0
:10362000013011440A06B2F1805FF5DDFF200CE0A5
:10363000002641F6086505E0A15D2846FEF744F83E
:1036400020350136082EF7D1002040B201B0F0BD80
:1036500010B56A4C20460221FDF797FC0028F9D0EE
:103660002046FF21FDF798FC20460121FDF78DFC47
:103670000028F9D02046FDF78DFCC0B210BD00BF78
:1036800001480121FDF7D0BA0008014010B50446F9
:10369000C1B24FF4B050FEF717F8210A4FF4C050F2
:1036A000BDE81040FEF710B8B0B50446464D4FF4E3
:1036B000106006222146A84704F10E014FF48070E5
:1036C0000422A84704F10A014FF4A0600422A8478D
:1036D000A11D4FF470600422A847A07C05494870E2
:1036E000E07C8870207DC870607D0871A07D0870C6
:1036F000B0BD00BFE0030020B0B510F0C50F01D091
:10370000FF2509E0044600200025FDF779FF40EA87
:1037100004010020FDF7D8FF68B2B0BDB0B5017854
:10372000074D04464FF4D850A847E1784FF4C850ED
:10373000A847A1784FF4D0502A46BDE8B0401047C2
:10374000C916000800207047704700002DE9F041BD
:1037500086B00DF106081B4C4FF41060062241465E
:10376000A04705AD4FF4807004222946A04704AE5F
:103770004FF4A06004223146A04703AF4FF47060BD
:1037800004223946A04700208021FDF79DFF00203C
:10379000FDF736FF0C4C4FF4106041460622A0475F
:1037A0004FF4807029460422A0474FF4A0603146B0
:1037B0000422A0474FF4706039460422A04706B0A7
:1037C000BDE8F0815D16000825170008B0B50B4C68
:1037D000054620460221FDF7D8FB0028F9D02046F7
:1037E0002946FDF7D9FB20460121FDF7CEFB002835
:1037F000F9D02046BDE8B040FDF7CCBB0030014019
:1038000010B504464FF43850FDF7FAFEC0F38011AE
:1038100000F0380021700121202802D0382818BF7C
:103820000021A0F110026170102A14D801210C4B64
:1038300001FA02F21A4208BF0021A170A0F10801AA
:1038400018290AD80120074A00FA01F1114208BFDD
:103850000020E07010BD0021EFE70020F9E700BF75
:10386000010101000100010180B54FF43850FDF75E
:10387000C7FE00F0010080BD80B54FF43850FDF761
:10388000BFFE00F038003038B0FA80F0400980BD4B
:1038900080B54FF43850FDF7B3FE00F07F014FF4D0
:1038A0003850FDF711FF4FF43850FDF7A9FE40F0F6
:1038B00080014FF43850BDE88040FDF705BF017826
:1038C00042780139012AB1FA81F14FEA51114FEAE8
:1038D000811102D141F038010EE08278C0780128D0
:1038E00006D1012A14BF41F0080141F0180103E09C
:1038F000012A08BF41F0100180B54FF43850FDF7A0
:10390000E3FEBDE88040FFF7C3BF10B504464FF4A7
:103910003850FDF775FE410601D4FF201BE040F052
:10392000380100F0C700012C08BF00F130014FF44E
:103930003850FDF7C9FEFFF7ABFF4FF43850FDF7E5
:103940005FFE012C03D110F0300F03D1E5E710F03A
:10395000380FE2D0002040B210BD00001CB500209E
:103960000DF10601ADF806000220FDF779FF0130E8
:1039700002D110A000F030F8BDF80600C00517D540
:103980004FF40270FDF73CFE00F01F04C00607D59F
:103990004FF402701021FDF797FE0BA000F09CFC85
:1039A000600758BF1CBD4FF402700421FDF78CFE68
:1039B0001CBD00BF43616E6E6F7420676574206923
:1039C000722E2E2E000000006170705F73656E74A1
:1039D00028293B0D000000000FB4054B10B503A9CA
:1039E000044A029800F0DAF810BC5DF814FB0000FD
:1039F000251B00080000002002E008C8121F08C1B3
:103A0000002AFAD170477047002001E001C1121F5F
:103A1000002AFBD1704700002DE9FF5F82B0002132
:103A2000DDE90430020DDDF840B0034318D044F660
:103A30001050A2F2FF3242431514119801281FD0F2
:103A4000A5EB0B00401C5FEA000A4FF000064E4F4A
:103A5000DFF83891B046504615D5CAF1000413E09E
:103A6000119801244AA3012801D16FEA0B010298A1
:103A7000119AC0E90031C0E9024206B0BDE8F09FEA
:103A8000CBF10000DFE704460021404A491842EB31
:103A90000450CDE9001012E0E00707D032463B4663
:103AA00040464946FCF7F9FC8046894632463B468B
:103AB00010461946FCF7F1FC06460F466410002C30
:103AC000EAD1DDE90401DDE90023BAF1000F06DAED
:103AD000FCF7E3FC42464B46FCF7DFFC05E0FCF755
:103AE0002DFE42464B46FCF729FE04460E460022B8
:103AF000284BFCF7ABFE03D84FF0FF30014607E040
:103B00000022254B20463146FCF720FCFCF785FEC1
:103B1000102409E0002C0ADB0A220023FCF702FB38
:103B2000039B30321A55641E50EA0102F2D1641C24
:103B3000039AC4F111031444119A012A03D00122FB
:103B400008430DD10AE0084304D000204FF0110BC8
:103B5000119072E7A3EB0B056D1E0DE05B4504DDD4
:103B60004FF0000205F1010504E003DA4FF0000216
:103B7000A5F10105002AECD002981199C0E90231A3
:103B8000C0E9004579E70000000014400000F03F64
:103B9000300000000000F0430000E03F2DE9FF4F3F
:103BA00095B09B468946064600250FE2252877D129
:103BB00000242746F84A0121059400E0044316F842
:103BC000013F203B01FA03F01042F7D130782A2858
:103BD00011D06FF02F033078A0F13002092A16D8E7
:103BE000059A44F0020402EB820203EB4202104405
:103BF000761C0590EFE759F8042B0592002A03DAAA
:103C0000504244F40054059044F00204761C30788D
:103C10002E2816D116F8010F44F004042A280DD0DE
:103C20006FF02F023078A0F13003092B09D807EB91
:103C3000870302EB4303C718761CF3E759F8047BAC
:103C4000761C30786C280FD006DC4C2817D06828FA
:103C50000DD06A2814D104E0742810D07A280FD12E
:103C60000DE044F400140AE044F4801401E044F44C
:103C700040147278824202D104F58014761C761CBE
:103C8000307866280BD013DC582877D009DC002860
:103C900075D04528F6D04628F4D047281AD19DE1A2
:103CA00018E0632835D0642879D0652812D195E1D1
:103CB000702873D008DC6728F1D069286FD06E288F
:103CC0000DD06F2806D1B5E073282CD0752875D09B
:103CD000782874D05A46179990476D1C75E1C4F343
:103CE0000250022809D003280DD0D9F8001004286A
:103CF0000DD00D6009F1040967E1D9F80010EA1749
:103D0000C1E90052F6E7D9F800100D80F2E70D7016
:103D1000F0E719F8041B8DF8001000208DF8010061
:103D2000EA46012003E059F804AB4FF0FF30610789
:103D30004FF0000102D40DE008F101018846B942BC
:103D40000FDA8045F8DB1AF808100029F4D108E0F2
:103D500008F1010188468142FADB1AF808100029AF
:103D6000F6D105985B46A0EB080721463846179A1E
:103D700000F094FA284400EB080507E04DE029E143
:103D80000DE01AF8010B5A4617999047B8F101084F
:103D9000F7D25B4621463846179A13E142E00A22E1
:103DA0000092C4F302524FF0000A022A08D059F8D8
:103DB00004CB032A4FEAEC710AD00DE029E02AE097
:103DC00009F1070121F00702F2E802C1914609E07A
:103DD0000FFA8CFC4FEAEC71042A03D14FFA8CFCE9
:103DE0004FEAEC71002907DA0A460021DCF1000CE9
:103DF00061EB02012D2202E0220504D52B228DF871
:103E00000420012203E0E20701D02022F7E79046D8
:103E100059E00A2102E010220DE010214FF0000AC3
:103E200000910BE010224FF0000A44F00404082730
:103E3000009203E008224FF0000A0092C4F30252FD
:103E4000022A05D059F804CB0021032A08D009E042
:103E500009F1070121F00702F2E802C1914605E0ED
:103E60001FFA8CFC042A01D10CF0FF0C4FF0000863
:103E7000220728D5702806D0009B83F0100353EA50
:103E80000A0305D00EE040228DF80420012208E04C
:103E90005CEA010206D030228DF804208DF805007E
:103EA00002229046009B83F0080353EA0A030AD1DA
:103EB0005CEA010201D1620705D530228DF80420A9
:103EC0004FF001087F1E582804D034A003900EA89C
:103ED00002900DE036A0F9E753466046009AFCF7E1
:103EE00021F984460398825C0298401E0290027079
:103EF0005CEA0100F0D1029806A9081A00F1200A34
:103F0000600702D524F4803400E00127574502DD24
:103F1000A7EB0A0000E0002000EB0A0100900598E2
:103F20004144401A0590E00306D45B462146179AA7
:103F3000059800F0B3F90544002706E001A85A46A9
:103F4000C05D179990476D1C7F1C4745F6DBE00369
:103F50000CD55B462146179A059800F09FF9054459
:103F600004E030205A46179990476D1C0099481E6E
:103F700000900029F5DC08E0029802995A46007882
:103F8000491C0291179990476D1CBAF10001AAF1E2
:103F9000010AF1DC65E1000009280100303132330B
:103FA0003435363738396162636465660000000075
:103FB000303132333435363738394142434445465F
:103FC0000000000000F058F90544761C3078002805
:103FD0007FF4ECAD19B02846BDE8F08F620700D43D
:103FE000062709F1070222F0070CFCE80223E1464C
:103FF00003F000485FEA080C02D00FF2702C0DE0CD
:104000005FEA045C02D50FF2682C07E05FEAC47C2B
:1040100002D00FF2602C01E0AFF2700C4FF0FF38CD
:1040200023F00043CDF850C065280CD006DC4528AD
:1040300009D046281DD047283DD13DE0662818D03C
:1040400067287ED138E00021112F01DB112000E02C
:10405000781CCDE9000106A90EA8FFF7DDFCDDE91B
:104060000F010E9A03910021009207F1010A0491B9
:104070004DE04FF000400097CDE9011006A90EA8D1
:10408000FFF7CAFCDDE90F0203920E9B1199002293
:10409000DDF80CA00093049211B9791C00EB010A21
:1040A000B7EB0A0004D4C0F1FF3007F1010A049015
:1040B000AAEB0700019044E0012F00DA012700215C
:1040C000112F01DD112000E03846CDE9000106A9DD
:1040D0000EA8FFF7A1FCDDE90F010E9A0391002164
:1040E00004910092BA4621070CD40399514500DA95
:1040F0008A46BAF1010F05DD009AAAF10101515C6F
:10410000302908D0B84202DA10F1040F06DA012192
:10411000CDE9011015E0AAF10101E9E7002805DC6D
:10412000049901440491AAEB000102E0411C5145AD
:1041300000DD8A460499401A401C01904FF000406F
:104140000290200704D40198504501DBCDF804808B
:1041500000208DF84F0002980DF14F07B0F1004F8D
:1041600025D02B200E9002984FF0020800280CDA80
:10417000404202902D200E9007E00A210298FCF7A1
:104180002BFA3031029007F8011DB8F10001A8F1B7
:104190000108F2DC02980028EFD1791E0E98087011
:1041A000307800F0200040F0450007F8020D12A81A
:1041B000C01B00F107081498007800B1012000EB43
:1041C0000A01019801EBE07105984144401A401E34
:1041D0000590E00306D45B462146179A059800F047
:1041E0005DF805441498007818B15A46179990471D
:1041F0006D1CE00324D55B462146179A059800F014
:104200004DF805441CE00498002807DBDDE90301B4
:10421000884203DD0098405C179901E0179930202F
:104220005A469047049805F10105401C04900198F6
:10423000401E019004D12E205A46179990476D1CBC
:10424000BAF10001AAF1010ADDDC05E017F8010B63
:104250005A46179990476D1CB8F10001A8F1010862
:10426000F4DC5B462146179A0598ABE62D0000006A
:104270002B000000200000002DE9F041044600253D
:104280001E461746880404D405E039462020B0476E
:104290006D1C641EF9D52846BDE8F0812DE9F0417A
:1042A000044600251E469046C80301D5302700E08D
:1042B0002027880404D505E041463846B0476D1CE8
:1042C000641EF9D52846BDE8F08100000149FDF7DC
:1042D00029BC00000000002010B5044601E0FDF7F5
:1042E00021FC14F8010B04490028F8D1BDE8104066
:1042F0000A20FDF717BC00000000002000404040ED
:1043000040404040404041414141414040404040A8
:104310004040404040404040404040404005020254
:104320000202020202020202020202020220202013
:10433000202020202020200202020202020290906F
:10434000909090901010101010101010101010106D
:1043500010101010101010100202020202028888C1
:1043600088888888080808080808080808080808CD
:1043700008080808080808080202020240000000B5
:10438000FD4200080A2B06010401819B190100006F
:1043900000060A002B06010401819B191000000091
:1043A000000000000000000000000000000000000D
:1043B00000000000000000000000000000000000FD
:1043C00000000000000000000000000000000000ED
:1043D00000000000000000000000000002040608C9
:1043E00000000000000000000102030406070809A5
:1043F000000000000102030401020304060708098B
:10440000140000000A0000004D41433A20253032DC
:10441000583A253032583A253032583A25303258F9
:104420003A253032583A253032580D0A0025643A80
:104430004F70656E65642C20706F7274205B25640C
:104440005D0D0A0025643A207265637666726F6DB1
:10445000206572726F722E2025640D0A0025643A61
:104460002073656E64746F206572726F722E2025E2
:10447000640D0A00534F434B4554204552524F524E
:10448000203A2025640D0A005355423A2025642E17
:1044900025642E25642E25640D0A005349503A20C8
:1044A00025642E25642E25642E25640D0A004741BF
:1044B000523A2025642E25642E25642E25640D0A8B
:1044C00000444E533A2025642E25642E25642E2563
:1044D000640D0A00F844000800000020E00300001A
:1044E000A008000818460008E0030020680B000040
:1044F000083A000800000000411809EE38F65CC0D8
:10450000A8010D0424F6E80332645A320411500B5A
:10451000A24A0401025735353030130F351B0811FC
:10452000041A15041A130413E9341B08ED04812F2F
:104530000C29347CABCD4A14FFFFFF19081B01087E
:104540000112015009082B06010201010113041E8A
:10455000001B2E57495A6E657420456D6265646470
:10456000656420534E4D50204167656E7459585212
:1045700002130608A90F013C595852030242431383
:104580003D199A0858520413041E081D31687474AA
:10459000703A2F2F7777772E77697A77696B692E44
:1045A0006E65742F666F72756DB00A1405581953D5
:1045B00007312E636F2E6B7259586A0658001138F6
:1045C00034462048756D61782056696C6C6167656A
:1045D00059585207034902041A0A584F0401819B93
:1045E0001901B00818366C6F6E672D6C656E6774B4
:1045F00068204F49442054657374202331583BADE3
:1046000042580A1523580A383258320213060AA9AA
:084610000F013D62C000000033
:04000005080000ED02
:00000001FF
