:020000040800F2
:1000000088170020CD150008C5030008C7030008A5
:10001000CB030008CF030008D30300080000000052
:10002000000000000000000000000000D7030008EE
:10003000D903000800000000DB030008DD0300080E
:10004000E7150008E7150008E7150008E7150008A0
:10005000E7150008E7150008E7150008E715000890
:10006000E715000817190008E7150008E71500084C
:10007000E7150008E7150008E7150008E715000870
:10008000E7150008E7150008E7150008E715000860
:10009000E7150008E7150008E7150008E715000850
:1000A000E7150008E7150008E7150008E715000840
:1000B000E7150008E7150008E7150008E715000830
:1000C000E7150008E7150008E7150008E715000820
:1000D000E7150008A5170008E7150008E715000850
:1000E000E7150008E7150008E715000800F002F81A
:1000F00000F03AF80AA090E8000C82448344AAF188
:100100000107DA4501D100F02FF8AFF2090EBAE885
:100110000F0013F0010F18BFFB1A43F0010318473B
:100120004C2300006C230000103A24BF78C878C12B
:10013000FAD8520724BF30C830C144BF04680C60ED
:10014000704700000023002400250026103A28BF35
:1001500078C1FBD8520728BF30C148BF0B60704739
:100160001FB51FBD10B510BD02F03AF91146FFF7DB
:10017000F7FF00F09AF802F06CF903B4FFF7F2FF12
:1001800003BC01F0ADFA0000C02074490870A8203B
:10019000487001208870C870FF207149087048704D
:1001A00088700020C8700C206E49087029204870A3
:1001B000AB2088707C20C870002008710220487134
:1001C000C02069490870A820487001208870F62076
:1001D000C87013206549087088204870022064495F
:1001E0000870704710B501F002FE01F044FE0020D7
:1001F00001F0A2FE10BD10B55E480078F8B95C4869
:10020000007860B9002001F0EEFEFF2803D1012044
:100210005849087020E00020564908701CE05448F6
:10022000007801280CD1002001F0BAFEFF2803D18C
:100230000120504908700FE000204E4908700BE083
:10024000002001F003FFFF2803D103204949087073
:1002500002E000204749087010BD70B505464649C8
:10026000284601F096FC044643480078434908704C
:100270004148407848704048807888703E48C0784F
:10028000C8703D4800793E4908703B484079487045
:10029000A4F10802384908313A4801F0F7FF224634
:1002A0003849284601F00BFD70BD01F0AFF94FF45D
:1002B000E13001F028FA34A001F0DCFF01F0B8FAD7
:1002C0004FF4A06000F07CF901F056FF002001F02F
:1002D00091FF01F0C7FAFFF757FF01F070FDFFF73C
:1002E00081FF2CA001F0C6FF36E0FFF784FF2C4809
:1002F000007808B101F0DFFE2A48007800F0010024
:1003000048B12848007820F00100264908700020F4
:10031000FFF7A3FF1BE0244800682449884216D356
:100320001448007803280FD11E48007820F00200FE
:100330001C49087012221EA1124801F0A7FF1222C8
:100340001049002001F0BBFC002017490860164846
:100350000068401C14490860C7E700003600002010
:100360003A0000203E000020440000204800002009
:1003700056000020570000202401002050000020DB
:10038000540000202409002053746172742E2E2E14
:100390000D0A000052756E2E2E2E0D0A0000000070
:1003A00059000020580000200000002080FC0A00B6
:1003B0000D0A57353530302055445020544553549C
:1003C0000D0A0000704700BFFEE700BFFEE700BF58
:1003D000FEE700BFFEE770477047704770470000B8
:1003E0000CB50020019000906C48006840F480300B
:1003F0006A49086000BF6948006800F40030009056
:100400000198401C0190009818B90198B0F5A06FB0
:10041000F1D16248006800F4003010B10120009072
:1004200001E0002000900098012843D15C4800685A
:1004300040F010005A4908600846006820F00300A8
:1004400008600846006840F00200086053484068B1
:10045000524948600846406848600846406840F491
:10046000806048600846406820F47C104860084678
:10047000406840F4E81048600846006840F080702A
:10048000086000BF4548006800F000700028F9D0FF
:100490004248406820F003004049486008464068F0
:1004A00040F00200486000BF3C48406800F00C008B
:1004B0000828F9D10CBD10B5FFF792FF10BD10B59B
:1004C0003648006840F0010034490860084640683A
:1004D00034490840314948600846006832490840BC
:1004E0002E4908600846006820F48020086008460D
:1004F000406820F4FE0048604FF41F008860FFF75A
:10050000DAFF4FF000602949086010BD10B50021E6
:1005100000200022214B5B6803F00C0121B104296B
:1005200006D0082928D107E0214B224C236027E080
:100530001F4B204C236023E0184B5B6803F47010C2
:10054000164B5B6803F48032022303EB904022B920
:10055000194B4343174C23600DE0104B5B6803F4C9
:10056000003323B1144B4343124C236003E0104B80
:100570004343104C236003E00D4B0E4C236000BF3F
:1005800000BF064B5B68C3F303130C4CE15C094BE3
:100590001B68CB40074C236010BD000000100240D8
:1005A000002002400000FFF8FFFFF6FE08ED00E02B
:1005B00000127A000400002000093D00080000201D
:1005C00031490143314A1160704770B50021002361
:1005D0000F22C47804B32D4C246804F4E064C4F5FD
:1005E000E064210AC1F10403CA40447804FA03F12B
:1005F0008478144021430901254C0678A1550478DC
:1006000004F01F050124AC4005786D11AD0005F123
:10061000E025C5F8004109E0047804F01F05012435
:10062000AC401C4D0678761145F8264070BD1A4A3C
:100630000A400243154B1B1F1A60704739B1134A19
:10064000121D12680243114B1B1D1A6006E00F4A6F
:10065000121D126882430D4B1B1D1A60704704283F
:1006600008D14FF0E021096941F004014FF0E02288
:10067000116107E04FF0E021096921F004014FF01A
:10068000E0221161704700000000FA050CED00E067
:1006900000E400E080E100E080FFFF1F10B50446A9
:1006A000CC48844208D10121042000F02DFB002118
:1006B000042000F029FB46E0C748844208D101210C
:1006C000082000F021FB0021082000F01DFB3AE08B
:1006D000C248844208D10121102000F015FB0021FE
:1006E000102000F011FB2EE0BD48844208D101210A
:1006F000202000F009FB0021202000F005FB22E073
:10070000B848844208D10121402000F0FDFA0021C0
:10071000402000F0F9FA16E0B348844208D10121E4
:10072000802000F0F1FA0021802000F0EDFA0AE0CC
:10073000AE48844207D10121801500F0E5FA00217E
:10074000A01500F0E1FA10BD10B50121084600F037
:10075000DBFA0021012000F0D7FA10BD2DE9F041AD
:10076000024600250026002000230024002791F8DF
:1007700003C00CF00F0591F803C00CF0100CBCF195
:10078000000F03D091F802C04CEA050591F800C0B3
:10079000BCF1000F31D0146800202BE04FF0010CA9
:1007A0000CFA00F3B1F800C00CEA03069E4220D117
:1007B00083004FF00F0C0CFA03F7BC4305FA03FC5F
:1007C0004CEA040491F803C0BCF1280F06D14FF0A5
:1007D000010C0CFA00FCC2F814C00AE091F803C046
:1007E000BCF1480F05D14FF0010C0CFA00FCC2F827
:1007F00010C0401C0828D1D31460B1F800C0BCF16F
:10080000FF0F34DD546800202EE000F1080C4FF09B
:10081000010808FA0CF3B1F800C00CEA03069E4286
:1008200021D183004FF00F0C0CFA03F7BC4305FAFB
:1008300003FC4CEA040491F803C0BCF1280F05D175
:1008400000F1080C08FA0CF8C2F8148091F803C003
:10085000BCF1480F07D100F1080C4FF0010808FA6D
:100860000CF8C2F81080401C0828CED35460BDE8B4
:10087000F0814FF6FF710180022181700421C17067
:1008800070470246002093680B400BB1012000E046
:10089000002070470146886880B2704702460020F9
:1008A000D3680B400BB1012000E0002070470146E7
:1008B000C86880B2704701617047416170470AB1F2
:1008C000016100E041617047C16070474FF48032C0
:1008D0000A4382618161826182698269704702464E
:1008E0000020434B18684FF68073184040EA02100E
:1008F00008433F4B186070473E49C8617047F0B5E8
:100900000A46002300240021002500F00046B6F12D
:10091000004F02D1364EF16901E0354E7168C0F3E7
:10092000034583B200F44016B6F5401F08D121F00C
:1009300070612F4E766826F070662D4F7E6012E053
:1009400000F48016B6F5801F06D1032606FA05F4DA
:10095000A14341F0706106E0460D360103FA06F648
:10096000B14341F0706122B1460D360103FA06F63B
:10097000314300F00046B6F1004F02D11C4EF16148
:1009800001E01B4E7160F0BD30B500228B071C0FDB
:100990000F2303FA04F2164B08338C1053F824305B
:1009A0009343134C08348D1044F8253023468C10A3
:1009B00053F824308C07240F00FA04F423430C4C22
:1009C00008348D1044F8253030BD0A49DC31086008
:1009D0007047000000080140000C01400010014079
:1009E0000014014000180140001C0140002001409B
:1009F0000000014000002042DF48006840F0010094
:100A0000DD49086008464068DC490840DA4948602A
:100A100008460068DA490840D74908600846006877
:100A200020F4802008600846406820F4FE004860FA
:100A30004FF41F0088607047CF49096821F4803166
:100A4000CD4A11601146096821F480211160B0F58A
:100A5000803F03D0B0F5802F0ED106E0C64909686B
:100A600041F48031C44A116007E0C349096841F488
:100A7000A021C14A116000E000BF00BF704710B55F
:100A800001460022002300204A11012A02D1BA4C5B
:100A9000236806E0022A02D1B74C236A01E0B64C73
:100AA000636A01F01F02012494401C400CB1012034
:100AB00000E0002010BD38B5002000900024002583
:100AC00000BF3120FFF7DBFF05460098401C009077
:100AD0000098B0F5A06F01D0002DF2D03120FFF7C3
:100AE000CEFF08B1012400E00024204638BD0146B5
:100AF0000020A14A106820F0F80040EAC100106010
:100B00007047A04908607047024600209A4B586819
:100B100020F47C1042EA01031843974B5860704759
:100B200098490866704701460020934A506820F0B3
:100B300003000843506070478F48406800F00C0085
:100B40007047014600208C4A506820F0F0000843AE
:100B50005060704701460020874A506820F4E060EA
:100B600008435060704701460020834A506820F4D3
:100B7000605040EAC1005060704729B17E4A527A05
:100B800002437D4B5A7204E07B4A527A82437A4B8D
:100B90005A7270477B49D83108607047014600207F
:100BA000754A506820F44040084350607047002167
:100BB000714A20321170704A82F82010012802D048
:100BC00004280AD104E001216B4A2032117005E0AB
:100BD0000521694A2032117000E000BF00BF704754
:100BE0006949086070476449096A0143624A1162B1
:100BF0007047654944390860704730B500210022CC
:100C0000002400235C4D6D6805F00C0121B104291E
:100C100005D0082923D105E05C4D056022E05B4D3D
:100C200005601FE0544D6D6805F47012524D6D68FB
:100C300005F48034022505EB92421CB9544D55430E
:100C400005600BE04C4D6D6805F400351DB1504D4D
:100C50005543056002E04D4D5543056002E04B4DA4
:100C6000056000BF00BF444D6D6805F0F001090943
:100C7000484D6B5C0568DD4045603F4D6D6805F48F
:100C8000E061090A434D6B5C4568DD4085603A4D83
:100C90006D6805F46051C90A3E4D6B5C4568DD40E6
:100CA000C560354D6D6805F44041890B3A4D6B5C6C
:100CB000C568B5FBF3F5056130BD29B12E4A52690F
:100CC00002432D4B5A6104E02B4A526982432A4B5E
:100CD0005A61704729B1284A92690243264B9A61AA
:100CE00004E0254A92698243234B9A61704729B1F7
:100CF000214AD2690243204BDA6104E01E4AD269DC
:100D000082431D4BDA61704729B11B4AD268024306
:100D1000194BDA6004E0184AD2688243164BDA6055
:100D2000704729B1144A12690243134B1A6104E057
:100D3000114A12698243104B1A61704712494039B7
:100D4000086070470F49C86470470B49C871704705
:100D50000948406A40F08070074948627047014680
:100D60000020054A92680A400AB1012000E00020F4
:100D70007047014988727047001002400000FFF878
:100D8000FFFFF6FE000042428004424200127A0059
:100D900000093D00180000202800002010B504467E
:100DA000FB48844209D101218803FFF7ADFF0021F0
:100DB0004FF48040FFF7A8FF32E0F648844209D1A3
:100DC00001214804FFF7ADFF00214FF40030FFF789
:100DD000A8FF25E0F048844209D101218804FFF7EB
:100DE000A0FF00214FF48020FFF79BFF18E0EB48A5
:100DF000844209D10121C804FFF793FF00214FF479
:100E00000020FFF78EFF0BE0E548844208D1012166
:100E10000805FFF786FF00214FF48010FFF781FFE0
:100E200010BD2DE9F04786B005460E460024A246C7
:100E300000BFA1460027B08900B100BF2F462C8A11
:100E40004CF6FF700440F08804432C82AC894EF6C7
:100E5000F3100440B0883189084371890843044382
:100E6000AC81AC8A4FF6FF400440B0890443AC82A9
:100E700001A8FFF7C2FEC648874202D1DDF810A0E4
:100E800001E0DDF80CA0A88900F4004040B10AEBB5
:100E9000CA0000EB0A1031684900B0FBF1F807E026
:100EA0000AEBCA0000EB0A1031688900B0FBF1F8C8
:100EB0006420B8FBF0F004012009642101FB1089D3
:100EC000A88900F4004040B1322000EBC900B0FB1B
:100ED000F1F000F00700044308E0322000EB0910B5
:100EE0006421B0FBF1F000F00F0004432C8106B048
:100EF000BDE8F0874FF41651016000218180C18068
:100F000001810C21418100218181704710B5024689
:100F10000020108A4FF2FF0318400B884C882343AF
:100F20008C882343CC8823431843108210BD0021B2
:100F3000018041808180C180704721B1828942F463
:100F40000052828104E082894DF6FF731A4082814B
:100F50007047F0B50346002400260025002040F627
:100F60006A17B94200D100BF1846C1F3421401F01C
:100F70001F06012707FA06F5012C01D10C3004E009
:100F8000022C01D1103000E014301AB107682F4351
:100F9000076002E00768AF430760F0BD1AB1838ABB
:100FA0000B43838202E0838A8B4383827047028AE9
:100FB0004FF6F0731A400282028A0A430282704797
:100FC00082894FF2FF731A40828182890A438281AB
:100FD000704721B1828942F00202828104E0828955
:100FE0004FF6FD731A4082817047028A4FF6DF7315
:100FF0001A400282028A0A430282704721B1028AA1
:1010000042F48042028204E0028A4BF6FF731A40E7
:1010100002827047C1F308028280704701468888C7
:10102000C0F308007047818941F001018181704758
:10103000028BD2B20283028B42EA01220283704702
:10104000028B02F47F420283028B0A4302837047C1
:1010500021B1828A42F02002828204E0828A4FF625
:10106000DF731A408282704721B1828A42F01002F7
:10107000828204E0828A4FF6EF731A4082827047C0
:1010800021B1828A42F00802828204E0828A4FF60D
:10109000F7731A408282704721B1828942F400427C
:1010A000828103E08289C2F30E028281704721B1FE
:1010B000828A42F40062828204E0828A4FF2FF73E5
:1010C0001A4082827047828A4FF6FB731A408282EE
:1010D000828A0A438282704721B1828A42F00202E8
:1010E000828204E0828A4FF6FD731A408282704742
:1010F00002460020B1F5007F00D100BF13880B40ED
:101100000BB1012000E00020704701F40072B2F53D
:10111000007F00D100BFCA430280704770B502460D
:10112000002400230025002040F66A16B14200D1B9
:1011300000BFC1F3421501F01F03012606FA03F3B5
:10114000012D02D19689334006E0022D02D1168A84
:10115000334001E0968A33400C12012606FA04F46B
:101160001688344013B10CB1012000E0002070BD9E
:1011700010B50022002340F66A14A14200D100BF3E
:101180000A1201249440A3B2DC43048010BD000085
:10119000003801400044004000480040004C00403E
:1011A0000050004010B50446BE48844208D10121D9
:1011B0008014FFF7A9FD0021A014FFF7A5FD16E09C
:1011C000B948844208D101210014FFF7AAFD00218B
:1011D0002014FFF7A6FD0AE0B448844207D101219C
:1011E000C013FFF79EFD0021E013FFF79AFD10BD2D
:1011F00010B50022028802F441520B884C88234328
:101200008C882343CC8823430C8923434C89234374
:101210008C892343CC8923431A430280838B4FF26A
:10122000FF74234083830B8A038210BD2DE9F04FA6
:1012300085B005460C464FF0000902274FF0000824
:101240004FF0010B0026B246A88B4FF24001084038
:10125000A88302202884B5F81C90A068022801D138
:1012600000BF38E0A08810B94FF0010B01E04FF04B
:10127000020B8D48854200D100E000BF6846FFF7B1
:10128000BCFCDDF800A0E088B0F5007F0AD14FEA91
:101290001A2000EB80004000A168B0FBF1F0401D77
:1012A00086B20BE04FEA4B10BAFBF0F000EB800087
:1012B0004000A168B0FBF1F0401D86B20A20B6FBE9
:1012C000F0F606F00108A6EB0800C0F34F074FF652
:1012D000FF7000EA0828022F01DBFF2F02DD022742
:1012E0004FF00008E08840EA080038432884A088CE
:1012F000A1890843618808432188084340F40060BD
:1013000040EA0909A5F81C9005B0BDE8F08F00215E
:10131000018041808180C180018141818181C181C1
:101320000721018270470021018041808180C180B6
:101330000221816000218181704721B1028842F041
:101340004002028004E002884FF6BF731A40028018
:10135000704721B1828B42F48062828304E0828BE9
:101360004FF6FF331A408283704730B500240023C4
:101370000C110125A540ABB21AB185881D438580AB
:1013800002E085889D43858030BD1AB183880B4378
:10139000838002E083888B4383807047818170471C
:1013A0000146888970474FF6FF62914204D0028857
:1013B00042F48072028004E002884FF6FF631A4014
:1013C0000280704721B1828842F00402828004E0EA
:1013D00082884FF6FB731A408280704702884FF272
:1013E000FF731A40028002880A4302807047018816
:1013F00041F480510180704721B1028842F40052CB
:10140000028004E002884DF6FF731A4002807047A4
:1014100002460020012901D0108B00E0908A70471D
:101420000146088A7047B1F5804F04D1028842F422
:101430008042028004E002884BF6FF731A4002806B
:1014400070470246002013890B400BB1012000E0D9
:1014500000207047CA4302817047F0B50246002061
:1014600000240023002501F00F070126BE40B4B27E
:101470000B1101269E40B3B2968806EA0305168931
:10148000264016B10DB1012000E00020F0BD10B5DE
:10149000002201F00F040123A3409AB2D343038139
:1014A00010BD00000030014000380040003C00400A
:1014B000002044490860091D0860091D0860091DD5
:1014C000086041483F4914310860704700213D4998
:1014D0008279002A3AD00A46126803689A430B467A
:1014E0001A600A1D126803689A430B1D1A6002797C
:1014F00011440A6803681A430A60324A08321268C3
:1015000003689A432F4B08331A601A1D1268036848
:101510009A432C4B0C331A604279102A0ED11A1FB1
:10152000126803681A43274B08331A601A1D1268A1
:1015300003681A43234B0C331A600DE021494279AA
:1015400011440A6803681A430A6005E002791144ED
:101550000A6803689A430A607047002101600171BC
:101560000C214171002181717047164910310968C1
:101570000143144A10321160704701460020114A9D
:10158000143212680A400AB1012000E000207047BE
:101590000C49143108607047014600200022094BB5
:1015A0001B6803EA0102074B14331B680B4013B19D
:1015B0000AB1012000E000207047024914310860A0
:1015C0007047000000040140FFFF0F0009488047FA
:1015D00009480047FEE7FEE7FEE7FEE7FEE7FEE715
:1015E000FEE7FEE7FEE7FEE704480549054A064B2D
:1015F00070470000BF040008ED00000888110020BB
:1016000088170020881300208813002010B56FF081
:101610000400FFF724F82E4800682E49B0FBF1F0D3
:101620002D4908700846007800EB4001C1EBC0105E
:101630004FF6FF7101EAC0002849088010BD01463D
:10164000254A12784A434FF0E0235A6100229A61FA
:101650001A46126942F001021A6100BF4FF0E022FF
:10166000106900F001021AB100F48032002AF5D0AE
:101670004FF0E022126922F001024FF0E0231A61DC
:1016800000229A6170470146144A12884A434FF07B
:10169000E0235A6100229A611A46126942F001025F
:1016A0001A6100BF4FF0E022106900F001021AB188
:1016B00000F48032002AF5D04FF0E022126922F0C7
:1016C00001024FF0E0231A6100229A617047000086
:1016D0000400002000127A002C0000202E000020C0
:1016E000014600BF704770B504460D4600BF40215B
:1016F0004B48FFF7FDFC0028F9D0E1B24848FFF75E
:1017000089FC204670BD10B586B00446012144F224
:101710000400FFF7DFFA4248FFF740FB4FF4007088
:10172000ADF8140003208DF8160018208DF817006E
:1017300005A93C48FFF712F84FF48060ADF814009B
:1017400004208DF8170005A93648FFF707F8019423
:101750000020ADF80800ADF80A00ADF80C00ADF8B7
:1017600010000C20ADF80E0001A92D48FFF759FB21
:1017700025208DF8000003208DF801008DF802006F
:1017800001208DF803006846FEF71FFF012240F29A
:1017900025512348FFF7DDFB01212148FFF7CDFB51
:1017A00006B010BD10B540F225511D48FFF7B6FC3C
:1017B00010B31B48FFF732FCC4B21B48008800F48A
:1017C0000040C8B91848008800F4804060B10A2C75
:1017D00003D000201449088020E01348008840F41A
:1017E00000401149088019E00D2C06D10E480088F0
:1017F00040F480400C49088010E00B480088C0F39A
:101800000D000A490C5408480088401C064908800D
:1018100008460088C72801DD0020088010BD0000B0
:101820000038014000080140340000205C00002026
:1018300008B501210420FFF74DFA0220ADF80000A1
:1018400010208DF8030003208DF80200694604483B
:10185000FEF784FF02210248FFF72DF808BD0000C3
:10186000000801401FB501210846FFF733FA0121A6
:101870000420FFF72FFA0420ADF80C0001208DF8AA
:101880000E0010208DF80F0003A9F848FEF766FF40
:101890000421F648FFF711F80820ADF80C000320EA
:1018A0008DF80E0048208DF80F0003A9EF48FEF7D1
:1018B00055FF0120ADF80C0003208DF80E0010201C
:1018C0008DF80F0003A9E948FEF748FF0121E7481A
:1018D000FEF7F1FF09208DF8000002208DF80100CD
:1018E0008DF8020001208DF803006846FEF76DFEBA
:1018F00003210020FFF748F80820019000208DF810
:1019000008000C208DF8090001208DF80A0001A8BC
:10191000FFF7DCFD1FBD10B50820FFF73DFE28B125
:101920000820FFF74AFE0120D149087010BD10B50C
:1019300004462146CF48FFF731FD00BF0221CD48C4
:10194000FFF77FFD0028F9D010BD70B5044625468D
:10195000E11704EB1161C1F30720FFF7E8FFE0B2E4
:10196000FFF7E5FF70BD70B505460C460121BF4885
:10197000FEF7A3FF2846FFF7E8FF0520FFF7D7FF94
:101980002046FFF7D4FF0121B848FEF794FF70BD51
:1019900070B505460C460121B448FEF78EFF284677
:1019A000FFF7D3FF0620FFF7C2FF2046FFF7CDFF6A
:1019B0000121AE48FEF77FFF70BD2DE9F0410746DB
:1019C0000C4615460121A948FEF777FF3846FFF778
:1019D000BCFF0420FFF7ABFF002605E014F8010B65
:1019E000FFF7A5FF701C86B2AE42F7DB01219F48CE
:1019F000FEF761FFBDE8F08170B504460D4616465E
:101A000001219A48FEF759FF2846FFF79EFF08215B
:101A100001EB4411C9B241F00500FFF788FF3046E1
:101A2000FFF785FF01219148FEF745FF70BD70B5B6
:101A300004460D46164601218C48FEF73EFF284617
:101A4000FFF783FF082101EB4411C9B241F0060002
:101A5000FFF76DFF3046FFF778FF01218348FEF75F
:101A60002AFF70BD70B505460E46144601217F4819
:101A7000FEF723FF3046FFF768FF082101EB451111
:101A8000C9B241F00700FFF752FF14F8010BFFF74E
:101A90004EFF14F8010BFFF74AFF14F8010BFFF794
:101AA00046FF14F8010BFFF742FF01216F48FEF7D4
:101AB00002FF70BD70B5044601216C48FEF7FDFEC3
:101AC0002046FFF742FF0120FFF731FF6948FFF78B
:101AD00067FCC5B20020FFF72AFF6648FFF760FCED
:101AE000C5B201216148FEF7E6FE284670BD70B51B
:101AF00004460D4601215D48FEF7DFFE2846FFF74C
:101B000024FF082101EB4411C9B241F00100FFF7A5
:101B10000EFF5848FFF744FCC6B20020FFF707FF4E
:101B20005448FFF73DFCC6B201215048FEF7C3FE02
:101B3000304670BD70B505460E4601214B48FEF794
:101B4000BCFE3046FFF701FF082101EB4511C9B289
:101B500041F00200FFF7EBFE4648FFF721FC044688
:101B60000020FFF7E4FE4348FFF71AFC044600207C
:101B7000FFF7DDFE4FF6FF7000EA04243D48FFF753
:101B80000FFC204484B201213848FEF794FE204621
:101B900070BD2DE9F04780460D4626214046FFF7EF
:101BA000C9FF064616B90020BDE8F08740F2B450E0
:101BB000864200DD064628214046FFF7BBFF074668
:101BC000B946C7F30A0701212848FEF776FE3846D2
:101BD000FFF7BBFE182101EB4811C8B2FFF7A7FEC3
:101BE0002448FFF7DDFB00F0FF0AB819B0F5006FDD
:101BF00011DA00240CE00020FFF799FE1D48FFF7E2
:101C0000CFFB00F0FF0A85F800A06D1C601C84B2B9
:101C1000B442F0DB3FE0C7F5006087B200240CE07F
:101C20000020FFF784FE1348FFF7BAFB00F0FF0A1D
:101C300085F800A06D1C601C84B2BC42F0DB012161
:101C40000A48FEF738FE01210848FEF736FE00205C
:101C5000FFF77BFE182101EB4811C8B2FFF767FEC2
:101C60000448FFF79DFB00F0FF0A12E00008014066
:101C700059000020003001400020FFF758FEFE48C8
:101C8000FFF78EFB00F0FF0A85F800A06D1C601CBA
:101C900084B2B442F0DB0121F848FEF70CFE09EBF8
:101CA00006001FFA80F94A4628214046FFF7BFFE8A
:101CB000402201214046FFF79FFE304674E72DE9A0
:101CC000F04707460D46904600213846FFF70FFFC4
:101CD00000F00F0002280ED1E94A0C213846FFF728
:101CE000C1FEE8484178007801EB002082B2102163
:101CF0003846FFF79CFE24213846FFF71BFF0646B7
:101D0000B146C6F30A060121DC48FEF7D6FD30468F
:101D1000FFF71BFE102101EB4711C9B241F004008F
:101D2000FFF705FE06EB0800B0F5006F0ADA0024A5
:101D300005E015F8010BFFF7FAFD601C84B244457D
:101D4000F7DB28E0C6F5006086B2002405E015F850
:101D5000010BFFF7ECFD601C84B2B442F7DB0121FC
:101D6000C648FEF7A8FD0121C448FEF7A6FD0020E5
:101D7000FFF7EBFD102101EB4711C9B241F0040060
:101D8000FFF7D5FD05E015F8010BFFF7D0FD601C4E
:101D900084B24445F7DB0121B848FEF78CFD09EB1E
:101DA00008001FFA80F94A4624213846FFF73FFE13
:101DB000202201213846FFF71FFEBDE8F08710B54D
:101DC0000421AE48FEF779FD3220FFF75CFC0421C8
:101DD000AA48FEF770FDC820FFF755FC00BF2E2073
:101DE000FFF768FE00F001000028F8D010BD10B524
:101DF000002480210020FFF7B6FD0A20FFF743FCF6
:101E00000422A1490120FFF7D8FD04229F490520A3
:101E1000FFF7D3FD06229E490920FFF7CEFD0422DD
:101E20009C490F20FFF7C9FD00BF0BE002221E21D5
:101E30002046FFF7E1FD02221F212046FFF7DCFDCF
:101E4000601CC4B2082CF1DB4FF4FA611920FFF7D3
:101E50009FFD08211B20FFF786FDC0211620FFF7FC
:101E600082FD01211820FFF77EFD1F222C2100207A
:101E7000FFF7C2FD10BD38B586480078401CC0B2DF
:101E80008DF8000083484078401CC0B28DF80100F6
:101E900080488078401CC0B28DF802007D48C07830
:101EA000401CC0B28DF803006A460C210020FFF7E9
:101EB000D9FD012200210846FFF79EFD01221146AF
:101EC0000020FFF799FD0520FFF7DDFB032100202F
:101ED000FFF70DFE132806D0102201210020FFF786
:101EE0008BFD002038BD042201210020FFF784FD76
:101EF00000BF002402210020FFF7F9FD044624B1B1
:101F0000224602210020FFF777FD0520FFF7BBFBEB
:101F100004F00800082801D10020E3E70621002092
:101F2000FFF7E5FDFF2806D0102201210020FFF772
:101F300063FDFF20D6E7DCE710B5044640F2B4525B
:101F400012210020FFF773FD082C26D2DFE804F0F1
:101F5000041E1F20212223244F484178007801EBE2
:101F6000002082B204210020FFF761FD4B48417838
:101F7000007801EB002082B210210020FFF757FD0E
:101F8000474A0C210020FFF76DFD07E006E005E061
:101F900004E003E002E001E000E000BF00BF10BD8C
:101FA00010B50446012200212046FFF725FD01223D
:101FB00011462046FFF720FD0520FFF764FB0321B3
:101FC0002046FFF794FD132806D010220121204659
:101FD000FFF712FD002010BD042201212046FFF76B
:101FE0000BFDFF20F7E710B5044601220021204633
:101FF000FFF702FD012211462046FFF7FDFC0520F8
:10200000FFF741FB03212046FFF771FD132806D09F
:10201000102201212046FFF7EFFC002010BD022214
:1020200001212046FFF7E8FC0520FFF72CFB0321E8
:102030002046FFF75CFD142806D01022012120461F
:10204000FFF7DAFC0020E9E7FF20E7E710B50446D8
:10205000022200212046FFF7CFFC01221146204634
:10206000FFF7CAFC0520FFF70EFB03212046FFF710
:102070003EFD22281DD015E000300140000801403F
:102080005000002054000020360000203A000020BC
:102090003E00002044000020480000204E000020A8
:1020A0004A000020102201212046FFF7A5FC002055
:1020B00010BDFF20FCE770B500BF00202B49087061
:1020C0001520FFF7F7FC054605F0F0011520FFF796
:1020D0004AFC1720FFF7EEFC054605F0010000283A
:1020E0003DD002210020FFF702FD044622460221D6
:1020F0000020FFF781FC04F0010028B11C480078A3
:1021000040F002001A49087004F0020050B1102299
:1021100001210020FFF770FC0020FFF70DFF0020D9
:102120001349087004F0100028B11248007840F0FC
:1021300002001049087004F0040028B10D4800782E
:1021400040F001000B49087004F0080038B110227B
:1021500001210020FFF750FC0020054908701720DE
:10216000FFF7A8FC00B1A8E770BD000059000020EF
:10217000570000205800002000B587B0012141F22F
:102180000500FEF7A7FDE020ADF8180018208DF837
:102190001B0003208DF81A0006A93348FEF7DEFA6B
:1021A000E0213148FEF787FB0020ADF804004FF432
:1021B0008270ADF806000020ADF808000220ADF8EE
:1021C0000A000120ADF80C004002ADF80E003820E6
:1021D000ADF810000020ADF812000720ADF8140093
:1021E00001A92248FFF704F801212048FFF7A5F8CC
:1021F00007B000BD10B504461C4800884FF6C771F3
:1022000008401A49088008460088204308800121B8
:102210001648FFF792F810BD70B50546002405E09A
:10222000601CC4B2C82C01DD002070BD02210F4823
:10223000FFF707F90028F3D029460C48FFF7AEF85E
:10224000002405E0601CC4B2C82C01DD0020ECE7CE
:1022500001210648FFF7F5F80028F3D00348FFF7FF
:102260009FF8C0B2E1E700000008014000300140E3
:10227000704700000FB4044910B503AA029800F09B
:102280004FF810BC5DF814FB30000020032A40F228
:10229000308010F0030C00F0158011F8013BBCF108
:1022A000020F624498BF11F801CB00F8013B38BF20
:1022B00011F8013BA2F1040298BF00F801CB38BF2E
:1022C00000F8013B11F0030300F03C80083AC0F035
:1022D000088051F8043B083A51F804CBA0E80810F4
:1022E000F5E7121D5CBF51F8043B40F8043BAFF327
:1022F0000080D20724BF11F8013B11F801CB48BF81
:1023000011F8012B24BF00F8013B00F801CB48BFB6
:1023100000F8012B70477047704770477047000006
:10232000074B70B50D467B4400F043F80446284641
:1023300000F052F810B14FF0FF3070BD204670BD74
:10234000BDF3FFFF10B5203AC0F00B80B1E8185084
:10235000203AA0E81850B1E81850A0E81850BFF48F
:10236000F5AF5FEA027C24BFB1E81850A0E818502E
:1023700044BF18C918C0BDE810405FEA827C24BF82
:1023800051F8043B40F8043B08BF7047D20728BF10
:1023900031F8023B48BF11F8012B28BF20F8023B5F
:1023A00048BF00F8012B704701694A1C0261087898
:1023B000704700B58FB0CDE9013100210591054985
:1023C0007944CDE903101146684600F02EF80FB0AD
:1023D00000BD0000E5FFFFFF007B00F080007047BC
:1023E000754600F03FF8AE4605006946534620F0BA
:1023F0000700854618B020B5FFF7F6F8BDE8204085
:102400004FF000064FF000074FF000084FF0000BB0
:1024100021F00701AC46ACE8C009ACE8C009ACE863
:10242000C009ACE8C0098D4670472DE9F041064669
:102430000024D6E90170F5688046304603E0414645
:10244000B847641C3046A8470028F8D12046BDE8AC
:10245000F08110B50446AFF300802046BDE810407F
:10246000FDF78BBE00487047241100208C24000823
:10247000000000205C00000028010008E82400089B
:102480005C0000202C170000440100080000000040
:1024900000A24A0400000000000000000102030442
:1024A00006070809000000000102030401020304FA
:1024B00006070809020406080000000000000000EA
:1024C000000000000000000000000000000000000C
:1024D00000000000000000000000000000000000FC
:0824E0000000030000000000F1
:04000005080000ED02
:00000001FF
